{
  "_format": "hh-sol-artifact-1",
  "contractName": "CodingNFT",
  "sourceName": "contracts/CodingNFT.sol",
  "abi": [
    {
      "inputs": [],
      "stateMutability": "nonpayable",
      "type": "constructor"
    },
    {
      "anonymous": false,
      "inputs": [
        {
          "indexed": true,
          "internalType": "address",
          "name": "owner",
          "type": "address"
        },
        {
          "indexed": true,
          "internalType": "address",
          "name": "approved",
          "type": "address"
        },
        {
          "indexed": true,
          "internalType": "uint256",
          "name": "tokenId",
          "type": "uint256"
        }
      ],
      "name": "Approval",
      "type": "event"
    },
    {
      "anonymous": false,
      "inputs": [
        {
          "indexed": true,
          "internalType": "address",
          "name": "owner",
          "type": "address"
        },
        {
          "indexed": true,
          "internalType": "address",
          "name": "operator",
          "type": "address"
        },
        {
          "indexed": false,
          "internalType": "bool",
          "name": "approved",
          "type": "bool"
        }
      ],
      "name": "ApprovalForAll",
      "type": "event"
    },
    {
      "anonymous": false,
      "inputs": [
        {
          "indexed": true,
          "internalType": "address",
          "name": "from",
          "type": "address"
        },
        {
          "indexed": true,
          "internalType": "address",
          "name": "to",
          "type": "address"
        },
        {
          "indexed": true,
          "internalType": "uint256",
          "name": "tokenId",
          "type": "uint256"
        }
      ],
      "name": "Transfer",
      "type": "event"
    },
    {
      "inputs": [
        {
          "internalType": "address",
          "name": "to",
          "type": "address"
        },
        {
          "internalType": "uint256",
          "name": "tokenId",
          "type": "uint256"
        }
      ],
      "name": "approve",
      "outputs": [],
      "stateMutability": "nonpayable",
      "type": "function"
    },
    {
      "inputs": [
        {
          "internalType": "address",
          "name": "owner",
          "type": "address"
        }
      ],
      "name": "balanceOf",
      "outputs": [
        {
          "internalType": "uint256",
          "name": "",
          "type": "uint256"
        }
      ],
      "stateMutability": "view",
      "type": "function"
    },
    {
      "inputs": [
        {
          "internalType": "uint256",
          "name": "tokenId",
          "type": "uint256"
        }
      ],
      "name": "getApproved",
      "outputs": [
        {
          "internalType": "address",
          "name": "",
          "type": "address"
        }
      ],
      "stateMutability": "view",
      "type": "function"
    },
    {
      "inputs": [
        {
          "internalType": "address",
          "name": "owner",
          "type": "address"
        },
        {
          "internalType": "address",
          "name": "operator",
          "type": "address"
        }
      ],
      "name": "isApprovedForAll",
      "outputs": [
        {
          "internalType": "bool",
          "name": "",
          "type": "bool"
        }
      ],
      "stateMutability": "view",
      "type": "function"
    },
    {
      "inputs": [
        {
          "internalType": "uint256",
          "name": "ind",
          "type": "uint256"
        }
      ],
      "name": "mint",
      "outputs": [],
      "stateMutability": "payable",
      "type": "function"
    },
    {
      "inputs": [],
      "name": "name",
      "outputs": [
        {
          "internalType": "string",
          "name": "",
          "type": "string"
        }
      ],
      "stateMutability": "view",
      "type": "function"
    },
    {
      "inputs": [
        {
          "internalType": "uint256",
          "name": "tokenId",
          "type": "uint256"
        }
      ],
      "name": "ownerOf",
      "outputs": [
        {
          "internalType": "address",
          "name": "",
          "type": "address"
        }
      ],
      "stateMutability": "view",
      "type": "function"
    },
    {
      "inputs": [
        {
          "internalType": "address",
          "name": "from",
          "type": "address"
        },
        {
          "internalType": "address",
          "name": "to",
          "type": "address"
        },
        {
          "internalType": "uint256",
          "name": "tokenId",
          "type": "uint256"
        }
      ],
      "name": "safeTransferFrom",
      "outputs": [],
      "stateMutability": "nonpayable",
      "type": "function"
    },
    {
      "inputs": [
        {
          "internalType": "address",
          "name": "from",
          "type": "address"
        },
        {
          "internalType": "address",
          "name": "to",
          "type": "address"
        },
        {
          "internalType": "uint256",
          "name": "tokenId",
          "type": "uint256"
        },
        {
          "internalType": "bytes",
          "name": "_data",
          "type": "bytes"
        }
      ],
      "name": "safeTransferFrom",
      "outputs": [],
      "stateMutability": "nonpayable",
      "type": "function"
    },
    {
      "inputs": [
        {
          "internalType": "address",
          "name": "operator",
          "type": "address"
        },
        {
          "internalType": "bool",
          "name": "approved",
          "type": "bool"
        }
      ],
      "name": "setApprovalForAll",
      "outputs": [],
      "stateMutability": "nonpayable",
      "type": "function"
    },
    {
      "inputs": [
        {
          "internalType": "bytes4",
          "name": "interfaceId",
          "type": "bytes4"
        }
      ],
      "name": "supportsInterface",
      "outputs": [
        {
          "internalType": "bool",
          "name": "",
          "type": "bool"
        }
      ],
      "stateMutability": "view",
      "type": "function"
    },
    {
      "inputs": [],
      "name": "symbol",
      "outputs": [
        {
          "internalType": "string",
          "name": "",
          "type": "string"
        }
      ],
      "stateMutability": "view",
      "type": "function"
    },
    {
      "inputs": [
        {
          "internalType": "uint256",
          "name": "tokenId",
          "type": "uint256"
        }
      ],
      "name": "tokenURI",
      "outputs": [
        {
          "internalType": "string",
          "name": "",
          "type": "string"
        }
      ],
      "stateMutability": "view",
      "type": "function"
    },
    {
      "inputs": [
        {
          "internalType": "address",
          "name": "from",
          "type": "address"
        },
        {
          "internalType": "address",
          "name": "to",
          "type": "address"
        },
        {
          "internalType": "uint256",
          "name": "tokenId",
          "type": "uint256"
        }
      ],
      "name": "transferFrom",
      "outputs": [],
      "stateMutability": "nonpayable",
      "type": "function"
    }
  ],
  "bytecode": "0x60806040523480156200001157600080fd5b506040518060400160405280600481526020017f44656d6f000000000000000000000000000000000000000000000000000000008152506040518060400160405280600481526020017f44454d4f00000000000000000000000000000000000000000000000000000000815250816000908051906020019062000096929190620000b8565b508060019080519060200190620000af929190620000b8565b505050620001cd565b828054620000c69062000168565b90600052602060002090601f016020900481019282620000ea576000855562000136565b82601f106200010557805160ff191683800117855562000136565b8280016001018555821562000136579182015b828111156200013557825182559160200191906001019062000118565b5b50905062000145919062000149565b5090565b5b80821115620001645760008160009055506001016200014a565b5090565b600060028204905060018216806200018157607f821691505b602082108114156200019857620001976200019e565b5b50919050565b7f4e487b7100000000000000000000000000000000000000000000000000000000600052602260045260246000fd5b612da380620001dd6000396000f3fe6080604052600436106100dd5760003560e01c806370a082311161007f578063a22cb46511610059578063a22cb465146102c3578063b88d4fde146102ec578063c87b56dd14610315578063e985e9c514610352576100dd565b806370a082311461023f57806395d89b411461027c578063a0712d68146102a7576100dd565b8063095ea7b3116100bb578063095ea7b31461018757806323b872dd146101b057806342842e0e146101d95780636352211e14610202576100dd565b806301ffc9a7146100e257806306fdde031461011f578063081812fc1461014a575b600080fd5b3480156100ee57600080fd5b5061010960048036038101906101049190611d4f565b61038f565b6040516101169190612178565b60405180910390f35b34801561012b57600080fd5b50610134610471565b6040516101419190612193565b60405180910390f35b34801561015657600080fd5b50610171600480360381019061016c9190611da1565b610503565b60405161017e9190612111565b60405180910390f35b34801561019357600080fd5b506101ae60048036038101906101a99190611d13565b610588565b005b3480156101bc57600080fd5b506101d760048036038101906101d29190611c0d565b6106a0565b005b3480156101e557600080fd5b5061020060048036038101906101fb9190611c0d565b610700565b005b34801561020e57600080fd5b5061022960048036038101906102249190611da1565b610720565b6040516102369190612111565b60405180910390f35b34801561024b57600080fd5b5061026660048036038101906102619190611ba8565b6107d2565b60405161027391906123d5565b60405180910390f35b34801561028857600080fd5b5061029161088a565b60405161029e9190612193565b60405180910390f35b6102c160048036038101906102bc9190611da1565b61091c565b005b3480156102cf57600080fd5b506102ea60048036038101906102e59190611cd7565b610ab4565b005b3480156102f857600080fd5b50610313600480360381019061030e9190611c5c565b610aca565b005b34801561032157600080fd5b5061033c60048036038101906103379190611da1565b610b2c565b6040516103499190612193565b60405180910390f35b34801561035e57600080fd5b5061037960048036038101906103749190611bd1565b610c7e565b6040516103869190612178565b60405180910390f35b60007f80ac58cd000000000000000000000000000000000000000000000000000000007bffffffffffffffffffffffffffffffffffffffffffffffffffffffff1916827bffffffffffffffffffffffffffffffffffffffffffffffffffffffff1916148061045a57507f5b5e139f000000000000000000000000000000000000000000000000000000007bffffffffffffffffffffffffffffffffffffffffffffffffffffffff1916827bffffffffffffffffffffffffffffffffffffffffffffffffffffffff1916145b8061046a575061046982610d12565b5b9050919050565b606060008054610480906125fa565b80601f01602080910402602001604051908101604052809291908181526020018280546104ac906125fa565b80156104f95780601f106104ce576101008083540402835291602001916104f9565b820191906000526020600020905b8154815290600101906020018083116104dc57829003601f168201915b5050505050905090565b600061050e82610d7c565b61054d576040517f08c379a000000000000000000000000000000000000000000000000000000000815260040161054490612355565b60405180910390fd5b6004600083815260200190815260200160002060009054906101000a900473ffffffffffffffffffffffffffffffffffffffff169050919050565b600061059382610720565b90508073ffffffffffffffffffffffffffffffffffffffff168373ffffffffffffffffffffffffffffffffffffffff161415610604576040517f08c379a00000000000000000000000000000000000000000000000000000000081526004016105fb90612395565b60405180910390fd5b8073ffffffffffffffffffffffffffffffffffffffff16610623610de8565b73ffffffffffffffffffffffffffffffffffffffff16148061065257506106518161064c610de8565b610c7e565b5b610691576040517f08c379a000000000000000000000000000000000000000000000000000000000815260040161068890612295565b60405180910390fd5b61069b8383610df0565b505050565b6106b16106ab610de8565b82610ea9565b6106f0576040517f08c379a00000000000000000000000000000000000000000000000000000000081526004016106e7906123b5565b60405180910390fd5b6106fb838383610f87565b505050565b61071b83838360405180602001604052806000815250610aca565b505050565b6000806002600084815260200190815260200160002060009054906101000a900473ffffffffffffffffffffffffffffffffffffffff169050600073ffffffffffffffffffffffffffffffffffffffff168173ffffffffffffffffffffffffffffffffffffffff1614156107c9576040517f08c379a00000000000000000000000000000000000000000000000000000000081526004016107c0906122d5565b60405180910390fd5b80915050919050565b60008073ffffffffffffffffffffffffffffffffffffffff168273ffffffffffffffffffffffffffffffffffffffff161415610843576040517f08c379a000000000000000000000000000000000000000000000000000000000815260040161083a906122b5565b60405180910390fd5b600360008373ffffffffffffffffffffffffffffffffffffffff1673ffffffffffffffffffffffffffffffffffffffff168152602001908152602001600020549050919050565b606060018054610899906125fa565b80601f01602080910402602001604051908101604052809291908181526020018280546108c5906125fa565b80156109125780601f106108e757610100808354040283529160200191610912565b820191906000526020600020905b8154815290600101906020018083116108f557829003601f168201915b5050505050905090565b60038161092991906126a6565b905060008114156109b15766038d7ea4c6800034101561097e576040517f08c379a000000000000000000000000000000000000000000000000000000000815260040161097590612275565b60405180910390fd5b6109893360006111ee565b6109ac6000604051806080016040528060428152602001612cea604291396113c8565b610ab1565b6001811415610a375766071afd498d0000341015610a04576040517f08c379a00000000000000000000000000000000000000000000000000000000081526004016109fb90612275565b60405180910390fd5b610a0f3360006111ee565b610a326000604051806080016040528060428152602001612ca8604291396113c8565b610ab0565b660aa87bee538000341015610a81576040517f08c379a0000000000000000000000000000000000000000000000000000000008152600401610a7890612275565b60405180910390fd5b610a8c3360006111ee565b610aaf6000604051806080016040528060428152602001612d2c604291396113c8565b5b5b50565b610ac6610abf610de8565b838361143c565b5050565b610adb610ad5610de8565b83610ea9565b610b1a576040517f08c379a0000000000000000000000000000000000000000000000000000000008152600401610b11906123b5565b60405180910390fd5b610b26848484846115a9565b50505050565b6060610b3782610d7c565b610b76576040517f08c379a0000000000000000000000000000000000000000000000000000000008152600401610b6d90612335565b60405180910390fd5b6000600660008481526020019081526020016000208054610b96906125fa565b80601f0160208091040260200160405190810160405280929190818152602001828054610bc2906125fa565b8015610c0f5780601f10610be457610100808354040283529160200191610c0f565b820191906000526020600020905b815481529060010190602001808311610bf257829003601f168201915b505050505090506000610c20611605565b9050600081511415610c36578192505050610c79565b600082511115610c6b578082604051602001610c539291906120ed565b60405160208183030381529060405292505050610c79565b610c748461161c565b925050505b919050565b6000600560008473ffffffffffffffffffffffffffffffffffffffff1673ffffffffffffffffffffffffffffffffffffffff16815260200190815260200160002060008373ffffffffffffffffffffffffffffffffffffffff1673ffffffffffffffffffffffffffffffffffffffff16815260200190815260200160002060009054906101000a900460ff16905092915050565b60007f01ffc9a7000000000000000000000000000000000000000000000000000000007bffffffffffffffffffffffffffffffffffffffffffffffffffffffff1916827bffffffffffffffffffffffffffffffffffffffffffffffffffffffff1916149050919050565b60008073ffffffffffffffffffffffffffffffffffffffff166002600084815260200190815260200160002060009054906101000a900473ffffffffffffffffffffffffffffffffffffffff1673ffffffffffffffffffffffffffffffffffffffff1614159050919050565b600033905090565b816004600083815260200190815260200160002060006101000a81548173ffffffffffffffffffffffffffffffffffffffff021916908373ffffffffffffffffffffffffffffffffffffffff160217905550808273ffffffffffffffffffffffffffffffffffffffff16610e6383610720565b73ffffffffffffffffffffffffffffffffffffffff167f8c5be1e5ebec7d5bd14f71427d1e84f3dd0314c0f7b2291e5b200ac8c7c3b92560405160405180910390a45050565b6000610eb482610d7c565b610ef3576040517f08c379a0000000000000000000000000000000000000000000000000000000008152600401610eea90612255565b60405180910390fd5b6000610efe83610720565b90508073ffffffffffffffffffffffffffffffffffffffff168473ffffffffffffffffffffffffffffffffffffffff161480610f405750610f3f8185610c7e565b5b80610f7e57508373ffffffffffffffffffffffffffffffffffffffff16610f6684610503565b73ffffffffffffffffffffffffffffffffffffffff16145b91505092915050565b8273ffffffffffffffffffffffffffffffffffffffff16610fa782610720565b73ffffffffffffffffffffffffffffffffffffffff1614610ffd576040517f08c379a0000000000000000000000000000000000000000000000000000000008152600401610ff4906121d5565b60405180910390fd5b600073ffffffffffffffffffffffffffffffffffffffff168273ffffffffffffffffffffffffffffffffffffffff16141561106d576040517f08c379a000000000000000000000000000000000000000000000000000000000815260040161106490612215565b60405180910390fd5b6110788383836116c3565b611083600082610df0565b6001600360008573ffffffffffffffffffffffffffffffffffffffff1673ffffffffffffffffffffffffffffffffffffffff16815260200190815260200160002060008282546110d39190612510565b925050819055506001600360008473ffffffffffffffffffffffffffffffffffffffff1673ffffffffffffffffffffffffffffffffffffffff168152602001908152602001600020600082825461112a9190612489565b92505081905550816002600083815260200190815260200160002060006101000a81548173ffffffffffffffffffffffffffffffffffffffff021916908373ffffffffffffffffffffffffffffffffffffffff160217905550808273ffffffffffffffffffffffffffffffffffffffff168473ffffffffffffffffffffffffffffffffffffffff167fddf252ad1be2c89b69c2b068fc378daa952ba7f163c4a11628f55a4df523b3ef60405160405180910390a46111e98383836116c8565b505050565b600073ffffffffffffffffffffffffffffffffffffffff168273ffffffffffffffffffffffffffffffffffffffff16141561125e576040517f08c379a000000000000000000000000000000000000000000000000000000000815260040161125590612315565b60405180910390fd5b61126781610d7c565b156112a7576040517f08c379a000000000000000000000000000000000000000000000000000000000815260040161129e906121f5565b60405180910390fd5b6112b3600083836116c3565b6001600360008473ffffffffffffffffffffffffffffffffffffffff1673ffffffffffffffffffffffffffffffffffffffff16815260200190815260200160002060008282546113039190612489565b92505081905550816002600083815260200190815260200160002060006101000a81548173ffffffffffffffffffffffffffffffffffffffff021916908373ffffffffffffffffffffffffffffffffffffffff160217905550808273ffffffffffffffffffffffffffffffffffffffff16600073ffffffffffffffffffffffffffffffffffffffff167fddf252ad1be2c89b69c2b068fc378daa952ba7f163c4a11628f55a4df523b3ef60405160405180910390a46113c4600083836116c8565b5050565b6113d182610d7c565b611410576040517f08c379a0000000000000000000000000000000000000000000000000000000008152600401611407906122f5565b60405180910390fd5b80600660008481526020019081526020016000209080519060200190611437929190611a34565b505050565b8173ffffffffffffffffffffffffffffffffffffffff168373ffffffffffffffffffffffffffffffffffffffff1614156114ab576040517f08c379a00000000000000000000000000000000000000000000000000000000081526004016114a290612235565b60405180910390fd5b80600560008573ffffffffffffffffffffffffffffffffffffffff1673ffffffffffffffffffffffffffffffffffffffff16815260200190815260200160002060008473ffffffffffffffffffffffffffffffffffffffff1673ffffffffffffffffffffffffffffffffffffffff16815260200190815260200160002060006101000a81548160ff0219169083151502179055508173ffffffffffffffffffffffffffffffffffffffff168373ffffffffffffffffffffffffffffffffffffffff167f17307eab39ab6107e8899845ad3d59bd9653f200f220920489ca2b5937696c318360405161159c9190612178565b60405180910390a3505050565b6115b4848484610f87565b6115c0848484846116cd565b6115ff576040517f08c379a00000000000000000000000000000000000000000000000000000000081526004016115f6906121b5565b60405180910390fd5b50505050565b606060405180602001604052806000815250905090565b606061162782610d7c565b611666576040517f08c379a000000000000000000000000000000000000000000000000000000000815260040161165d90612375565b60405180910390fd5b6000611670611605565b9050600081511161169057604051806020016040528060008152506116bb565b8061169a84611864565b6040516020016116ab9291906120ed565b6040516020818303038152906040525b915050919050565b505050565b505050565b60006116ee8473ffffffffffffffffffffffffffffffffffffffff16611a11565b15611857578373ffffffffffffffffffffffffffffffffffffffff1663150b7a02611717610de8565b8786866040518563ffffffff1660e01b8152600401611739949392919061212c565b602060405180830381600087803b15801561175357600080fd5b505af192505050801561178457506040513d601f19601f820116820180604052508101906117819190611d78565b60015b611807573d80600081146117b4576040519150601f19603f3d011682016040523d82523d6000602084013e6117b9565b606091505b506000815114156117ff576040517f08c379a00000000000000000000000000000000000000000000000000000000081526004016117f6906121b5565b60405180910390fd5b805181602001fd5b63150b7a0260e01b7bffffffffffffffffffffffffffffffffffffffffffffffffffffffff1916817bffffffffffffffffffffffffffffffffffffffffffffffffffffffff19161491505061185c565b600190505b949350505050565b606060008214156118ac576040518060400160405280600181526020017f30000000000000000000000000000000000000000000000000000000000000008152509050611a0c565b600082905060005b600082146118de5780806118c79061265d565b915050600a826118d791906124df565b91506118b4565b60008167ffffffffffffffff811115611920577f4e487b7100000000000000000000000000000000000000000000000000000000600052604160045260246000fd5b6040519080825280601f01601f1916602001820160405280156119525781602001600182028036833780820191505090505b5090505b60008514611a055760018261196b9190612510565b9150600a8561197a91906126a6565b60306119869190612489565b60f81b8183815181106119c2577f4e487b7100000000000000000000000000000000000000000000000000000000600052603260045260246000fd5b60200101907effffffffffffffffffffffffffffffffffffffffffffffffffffffffffffff1916908160001a905350600a856119fe91906124df565b9450611956565b8093505050505b919050565b6000808273ffffffffffffffffffffffffffffffffffffffff163b119050919050565b828054611a40906125fa565b90600052602060002090601f016020900481019282611a625760008555611aa9565b82601f10611a7b57805160ff1916838001178555611aa9565b82800160010185558215611aa9579182015b82811115611aa8578251825591602001919060010190611a8d565b5b509050611ab69190611aba565b5090565b5b80821115611ad3576000816000905550600101611abb565b5090565b6000611aea611ae584612415565b6123f0565b905082815260208101848484011115611b0257600080fd5b611b0d8482856125b8565b509392505050565b600081359050611b2481612c4b565b92915050565b600081359050611b3981612c62565b92915050565b600081359050611b4e81612c79565b92915050565b600081519050611b6381612c79565b92915050565b600082601f830112611b7a57600080fd5b8135611b8a848260208601611ad7565b91505092915050565b600081359050611ba281612c90565b92915050565b600060208284031215611bba57600080fd5b6000611bc884828501611b15565b91505092915050565b60008060408385031215611be457600080fd5b6000611bf285828601611b15565b9250506020611c0385828601611b15565b9150509250929050565b600080600060608486031215611c2257600080fd5b6000611c3086828701611b15565b9350506020611c4186828701611b15565b9250506040611c5286828701611b93565b9150509250925092565b60008060008060808587031215611c7257600080fd5b6000611c8087828801611b15565b9450506020611c9187828801611b15565b9350506040611ca287828801611b93565b925050606085013567ffffffffffffffff811115611cbf57600080fd5b611ccb87828801611b69565b91505092959194509250565b60008060408385031215611cea57600080fd5b6000611cf885828601611b15565b9250506020611d0985828601611b2a565b9150509250929050565b60008060408385031215611d2657600080fd5b6000611d3485828601611b15565b9250506020611d4585828601611b93565b9150509250929050565b600060208284031215611d6157600080fd5b6000611d6f84828501611b3f565b91505092915050565b600060208284031215611d8a57600080fd5b6000611d9884828501611b54565b91505092915050565b600060208284031215611db357600080fd5b6000611dc184828501611b93565b91505092915050565b611dd381612544565b82525050565b611de281612556565b82525050565b6000611df382612446565b611dfd818561245c565b9350611e0d8185602086016125c7565b611e1681612793565b840191505092915050565b6000611e2c82612451565b611e36818561246d565b9350611e468185602086016125c7565b611e4f81612793565b840191505092915050565b6000611e6582612451565b611e6f818561247e565b9350611e7f8185602086016125c7565b80840191505092915050565b6000611e9860328361246d565b9150611ea3826127a4565b604082019050919050565b6000611ebb60258361246d565b9150611ec6826127f3565b604082019050919050565b6000611ede601c8361246d565b9150611ee982612842565b602082019050919050565b6000611f0160248361246d565b9150611f0c8261286b565b604082019050919050565b6000611f2460198361246d565b9150611f2f826128ba565b602082019050919050565b6000611f47602c8361246d565b9150611f52826128e3565b604082019050919050565b6000611f6a601d8361246d565b9150611f7582612932565b602082019050919050565b6000611f8d60388361246d565b9150611f988261295b565b604082019050919050565b6000611fb0602a8361246d565b9150611fbb826129aa565b604082019050919050565b6000611fd360298361246d565b9150611fde826129f9565b604082019050919050565b6000611ff6602e8361246d565b915061200182612a48565b604082019050919050565b600061201960208361246d565b915061202482612a97565b602082019050919050565b600061203c60318361246d565b915061204782612ac0565b604082019050919050565b600061205f602c8361246d565b915061206a82612b0f565b604082019050919050565b6000612082602f8361246d565b915061208d82612b5e565b604082019050919050565b60006120a560218361246d565b91506120b082612bad565b604082019050919050565b60006120c860318361246d565b91506120d382612bfc565b604082019050919050565b6120e7816125ae565b82525050565b60006120f98285611e5a565b91506121058284611e5a565b91508190509392505050565b60006020820190506121266000830184611dca565b92915050565b60006080820190506121416000830187611dca565b61214e6020830186611dca565b61215b60408301856120de565b818103606083015261216d8184611de8565b905095945050505050565b600060208201905061218d6000830184611dd9565b92915050565b600060208201905081810360008301526121ad8184611e21565b905092915050565b600060208201905081810360008301526121ce81611e8b565b9050919050565b600060208201905081810360008301526121ee81611eae565b9050919050565b6000602082019050818103600083015261220e81611ed1565b9050919050565b6000602082019050818103600083015261222e81611ef4565b9050919050565b6000602082019050818103600083015261224e81611f17565b9050919050565b6000602082019050818103600083015261226e81611f3a565b9050919050565b6000602082019050818103600083015261228e81611f5d565b9050919050565b600060208201905081810360008301526122ae81611f80565b9050919050565b600060208201905081810360008301526122ce81611fa3565b9050919050565b600060208201905081810360008301526122ee81611fc6565b9050919050565b6000602082019050818103600083015261230e81611fe9565b9050919050565b6000602082019050818103600083015261232e8161200c565b9050919050565b6000602082019050818103600083015261234e8161202f565b9050919050565b6000602082019050818103600083015261236e81612052565b9050919050565b6000602082019050818103600083015261238e81612075565b9050919050565b600060208201905081810360008301526123ae81612098565b9050919050565b600060208201905081810360008301526123ce816120bb565b9050919050565b60006020820190506123ea60008301846120de565b92915050565b60006123fa61240b565b9050612406828261262c565b919050565b6000604051905090565b600067ffffffffffffffff8211156124305761242f612764565b5b61243982612793565b9050602081019050919050565b600081519050919050565b600081519050919050565b600082825260208201905092915050565b600082825260208201905092915050565b600081905092915050565b6000612494826125ae565b915061249f836125ae565b9250827fffffffffffffffffffffffffffffffffffffffffffffffffffffffffffffffff038211156124d4576124d36126d7565b5b828201905092915050565b60006124ea826125ae565b91506124f5836125ae565b92508261250557612504612706565b5b828204905092915050565b600061251b826125ae565b9150612526836125ae565b925082821015612539576125386126d7565b5b828203905092915050565b600061254f8261258e565b9050919050565b60008115159050919050565b60007fffffffff0000000000000000000000000000000000000000000000000000000082169050919050565b600073ffffffffffffffffffffffffffffffffffffffff82169050919050565b6000819050919050565b82818337600083830152505050565b60005b838110156125e55780820151818401526020810190506125ca565b838111156125f4576000848401525b50505050565b6000600282049050600182168061261257607f821691505b6020821081141561262657612625612735565b5b50919050565b61263582612793565b810181811067ffffffffffffffff8211171561265457612653612764565b5b80604052505050565b6000612668826125ae565b91507fffffffffffffffffffffffffffffffffffffffffffffffffffffffffffffffff82141561269b5761269a6126d7565b5b600182019050919050565b60006126b1826125ae565b91506126bc836125ae565b9250826126cc576126cb612706565b5b828206905092915050565b7f4e487b7100000000000000000000000000000000000000000000000000000000600052601160045260246000fd5b7f4e487b7100000000000000000000000000000000000000000000000000000000600052601260045260246000fd5b7f4e487b7100000000000000000000000000000000000000000000000000000000600052602260045260246000fd5b7f4e487b7100000000000000000000000000000000000000000000000000000000600052604160045260246000fd5b6000601f19601f8301169050919050565b7f4552433732313a207472616e7366657220746f206e6f6e20455243373231526560008201527f63656976657220696d706c656d656e7465720000000000000000000000000000602082015250565b7f4552433732313a207472616e736665722066726f6d20696e636f72726563742060008201527f6f776e6572000000000000000000000000000000000000000000000000000000602082015250565b7f4552433732313a20746f6b656e20616c7265616479206d696e74656400000000600082015250565b7f4552433732313a207472616e7366657220746f20746865207a65726f2061646460008201527f7265737300000000000000000000000000000000000000000000000000000000602082015250565b7f4552433732313a20617070726f766520746f2063616c6c657200000000000000600082015250565b7f4552433732313a206f70657261746f7220717565727920666f72206e6f6e657860008201527f697374656e7420746f6b656e0000000000000000000000000000000000000000602082015250565b7f436f64696e674e46543a20696e73756666696369656e742066756e6473000000600082015250565b7f4552433732313a20617070726f76652063616c6c6572206973206e6f74206f7760008201527f6e6572206e6f7220617070726f76656420666f7220616c6c0000000000000000602082015250565b7f4552433732313a2062616c616e636520717565727920666f7220746865207a6560008201527f726f206164647265737300000000000000000000000000000000000000000000602082015250565b7f4552433732313a206f776e657220717565727920666f72206e6f6e657869737460008201527f656e7420746f6b656e0000000000000000000000000000000000000000000000602082015250565b7f45524337323155524953746f726167653a2055524920736574206f66206e6f6e60008201527f6578697374656e7420746f6b656e000000000000000000000000000000000000602082015250565b7f4552433732313a206d696e7420746f20746865207a65726f2061646472657373600082015250565b7f45524337323155524953746f726167653a2055524920717565727920666f722060008201527f6e6f6e6578697374656e7420746f6b656e000000000000000000000000000000602082015250565b7f4552433732313a20617070726f76656420717565727920666f72206e6f6e657860008201527f697374656e7420746f6b656e0000000000000000000000000000000000000000602082015250565b7f4552433732314d657461646174613a2055524920717565727920666f72206e6f60008201527f6e6578697374656e7420746f6b656e0000000000000000000000000000000000602082015250565b7f4552433732313a20617070726f76616c20746f2063757272656e74206f776e6560008201527f7200000000000000000000000000000000000000000000000000000000000000602082015250565b7f4552433732313a207472616e736665722063616c6c6572206973206e6f74206f60008201527f776e6572206e6f7220617070726f766564000000000000000000000000000000602082015250565b612c5481612544565b8114612c5f57600080fd5b50565b612c6b81612556565b8114612c7657600080fd5b50565b612c8281612562565b8114612c8d57600080fd5b50565b612c99816125ae565b8114612ca457600080fd5b5056fe697066733a2f2f6261666b72656962656d3236706a6c63727336336765776e756e73786d6d7237716a7a687774726f6178626a347274346e6f3572636c7074703665697066733a2f2f6261666b72656967706a32717667776f6c6864677a3678366a3767666d79616379336f6f7433366768766373796b326c7170337169707036616a6d697066733a2f2f6261666b726569663232627135326d693264627074797774677461687368617a716965736f32783334766976766f62697032763534706174766c79a264697066735822122063e2f0a47cad215128040ed712a102958c6ce128ac13148f7844c89e0692f6a664736f6c63430008040033",
  "linkReferences": {},
  "deployedLinkReferences": {}
}