{
  "_format": "hh-sol-artifact-1",
  "contractName": "JintaoNFT",
  "sourceName": "contracts/JintaoNFT.sol",
  "abi": [
    {
      "inputs": [],
      "stateMutability": "nonpayable",
      "type": "constructor"
    },
    {
      "anonymous": false,
      "inputs": [
        {
          "indexed": true,
          "internalType": "address",
          "name": "owner",
          "type": "address"
        },
        {
          "indexed": true,
          "internalType": "address",
          "name": "approved",
          "type": "address"
        },
        {
          "indexed": true,
          "internalType": "uint256",
          "name": "tokenId",
          "type": "uint256"
        }
      ],
      "name": "Approval",
      "type": "event"
    },
    {
      "anonymous": false,
      "inputs": [
        {
          "indexed": true,
          "internalType": "address",
          "name": "owner",
          "type": "address"
        },
        {
          "indexed": true,
          "internalType": "address",
          "name": "operator",
          "type": "address"
        },
        {
          "indexed": false,
          "internalType": "bool",
          "name": "approved",
          "type": "bool"
        }
      ],
      "name": "ApprovalForAll",
      "type": "event"
    },
    {
      "anonymous": false,
      "inputs": [
        {
          "indexed": true,
          "internalType": "address",
          "name": "from",
          "type": "address"
        },
        {
          "indexed": true,
          "internalType": "address",
          "name": "to",
          "type": "address"
        },
        {
          "indexed": true,
          "internalType": "uint256",
          "name": "tokenId",
          "type": "uint256"
        }
      ],
      "name": "Transfer",
      "type": "event"
    },
    {
      "inputs": [
        {
          "internalType": "address",
          "name": "to",
          "type": "address"
        },
        {
          "internalType": "uint256",
          "name": "tokenId",
          "type": "uint256"
        }
      ],
      "name": "approve",
      "outputs": [],
      "stateMutability": "nonpayable",
      "type": "function"
    },
    {
      "inputs": [
        {
          "internalType": "address",
          "name": "owner",
          "type": "address"
        }
      ],
      "name": "balanceOf",
      "outputs": [
        {
          "internalType": "uint256",
          "name": "",
          "type": "uint256"
        }
      ],
      "stateMutability": "view",
      "type": "function"
    },
    {
      "inputs": [
        {
          "internalType": "uint256",
          "name": "tokenId",
          "type": "uint256"
        }
      ],
      "name": "burnNFT",
      "outputs": [
        {
          "internalType": "uint256",
          "name": "",
          "type": "uint256"
        }
      ],
      "stateMutability": "nonpayable",
      "type": "function"
    },
    {
      "inputs": [],
      "name": "destroy",
      "outputs": [],
      "stateMutability": "nonpayable",
      "type": "function"
    },
    {
      "inputs": [
        {
          "internalType": "uint256",
          "name": "tokenId",
          "type": "uint256"
        }
      ],
      "name": "getApproved",
      "outputs": [
        {
          "internalType": "address",
          "name": "",
          "type": "address"
        }
      ],
      "stateMutability": "view",
      "type": "function"
    },
    {
      "inputs": [
        {
          "internalType": "address",
          "name": "owner",
          "type": "address"
        },
        {
          "internalType": "address",
          "name": "operator",
          "type": "address"
        }
      ],
      "name": "isApprovedForAll",
      "outputs": [
        {
          "internalType": "bool",
          "name": "",
          "type": "bool"
        }
      ],
      "stateMutability": "view",
      "type": "function"
    },
    {
      "inputs": [
        {
          "internalType": "address",
          "name": "_to",
          "type": "address"
        },
        {
          "internalType": "string",
          "name": "tokenURI_",
          "type": "string"
        }
      ],
      "name": "mintNFT",
      "outputs": [
        {
          "internalType": "uint256",
          "name": "",
          "type": "uint256"
        }
      ],
      "stateMutability": "nonpayable",
      "type": "function"
    },
    {
      "inputs": [],
      "name": "name",
      "outputs": [
        {
          "internalType": "string",
          "name": "",
          "type": "string"
        }
      ],
      "stateMutability": "view",
      "type": "function"
    },
    {
      "inputs": [
        {
          "internalType": "uint256",
          "name": "tokenId",
          "type": "uint256"
        }
      ],
      "name": "ownerOf",
      "outputs": [
        {
          "internalType": "address",
          "name": "",
          "type": "address"
        }
      ],
      "stateMutability": "view",
      "type": "function"
    },
    {
      "inputs": [
        {
          "internalType": "address",
          "name": "from",
          "type": "address"
        },
        {
          "internalType": "address",
          "name": "to",
          "type": "address"
        },
        {
          "internalType": "uint256",
          "name": "tokenId",
          "type": "uint256"
        }
      ],
      "name": "safeTransferFrom",
      "outputs": [],
      "stateMutability": "nonpayable",
      "type": "function"
    },
    {
      "inputs": [
        {
          "internalType": "address",
          "name": "from",
          "type": "address"
        },
        {
          "internalType": "address",
          "name": "to",
          "type": "address"
        },
        {
          "internalType": "uint256",
          "name": "tokenId",
          "type": "uint256"
        },
        {
          "internalType": "bytes",
          "name": "_data",
          "type": "bytes"
        }
      ],
      "name": "safeTransferFrom",
      "outputs": [],
      "stateMutability": "nonpayable",
      "type": "function"
    },
    {
      "inputs": [
        {
          "internalType": "address",
          "name": "operator",
          "type": "address"
        },
        {
          "internalType": "bool",
          "name": "approved",
          "type": "bool"
        }
      ],
      "name": "setApprovalForAll",
      "outputs": [],
      "stateMutability": "nonpayable",
      "type": "function"
    },
    {
      "inputs": [
        {
          "internalType": "string",
          "name": "baseURI_",
          "type": "string"
        }
      ],
      "name": "setBaseURI",
      "outputs": [],
      "stateMutability": "nonpayable",
      "type": "function"
    },
    {
      "inputs": [
        {
          "internalType": "bytes4",
          "name": "interfaceId",
          "type": "bytes4"
        }
      ],
      "name": "supportsInterface",
      "outputs": [
        {
          "internalType": "bool",
          "name": "",
          "type": "bool"
        }
      ],
      "stateMutability": "view",
      "type": "function"
    },
    {
      "inputs": [],
      "name": "symbol",
      "outputs": [
        {
          "internalType": "string",
          "name": "",
          "type": "string"
        }
      ],
      "stateMutability": "view",
      "type": "function"
    },
    {
      "inputs": [
        {
          "internalType": "uint256",
          "name": "index",
          "type": "uint256"
        }
      ],
      "name": "tokenByIndex",
      "outputs": [
        {
          "internalType": "uint256",
          "name": "",
          "type": "uint256"
        }
      ],
      "stateMutability": "view",
      "type": "function"
    },
    {
      "inputs": [
        {
          "internalType": "address",
          "name": "owner",
          "type": "address"
        },
        {
          "internalType": "uint256",
          "name": "index",
          "type": "uint256"
        }
      ],
      "name": "tokenOfOwnerByIndex",
      "outputs": [
        {
          "internalType": "uint256",
          "name": "",
          "type": "uint256"
        }
      ],
      "stateMutability": "view",
      "type": "function"
    },
    {
      "inputs": [
        {
          "internalType": "uint256",
          "name": "tokenId",
          "type": "uint256"
        }
      ],
      "name": "tokenURI",
      "outputs": [
        {
          "internalType": "string",
          "name": "",
          "type": "string"
        }
      ],
      "stateMutability": "view",
      "type": "function"
    },
    {
      "inputs": [],
      "name": "totalSupply",
      "outputs": [
        {
          "internalType": "uint256",
          "name": "",
          "type": "uint256"
        }
      ],
      "stateMutability": "view",
      "type": "function"
    },
    {
      "inputs": [
        {
          "internalType": "address",
          "name": "_from",
          "type": "address"
        },
        {
          "internalType": "address",
          "name": "_to",
          "type": "address"
        },
        {
          "internalType": "uint256",
          "name": "tokenId",
          "type": "uint256"
        }
      ],
      "name": "transNFT",
      "outputs": [
        {
          "internalType": "uint256",
          "name": "",
          "type": "uint256"
        }
      ],
      "stateMutability": "nonpayable",
      "type": "function"
    },
    {
      "inputs": [
        {
          "internalType": "address",
          "name": "from",
          "type": "address"
        },
        {
          "internalType": "address",
          "name": "to",
          "type": "address"
        },
        {
          "internalType": "uint256",
          "name": "tokenId",
          "type": "uint256"
        }
      ],
      "name": "transferFrom",
      "outputs": [],
      "stateMutability": "nonpayable",
      "type": "function"
    }
  ],
  "bytecode": "0x60806040523480156200001157600080fd5b506040518060400160405280600981526020017f4e46544d61726b657400000000000000000000000000000000000000000000008152506040518060400160405280600681526020017f4e46544d4b540000000000000000000000000000000000000000000000000000815250816000908051906020019062000096929190620000f9565b508060019080519060200190620000af929190620000f9565b50505033600c60006101000a81548173ffffffffffffffffffffffffffffffffffffffff021916908373ffffffffffffffffffffffffffffffffffffffff1602179055506200020e565b8280546200010790620001a9565b90600052602060002090601f0160209004810192826200012b576000855562000177565b82601f106200014657805160ff191683800117855562000177565b8280016001018555821562000177579182015b828111156200017657825182559160200191906001019062000159565b5b5090506200018691906200018a565b5090565b5b80821115620001a55760008160009055506001016200018b565b5090565b60006002820490506001821680620001c257607f821691505b60208210811415620001d957620001d8620001df565b5b50919050565b7f4e487b7100000000000000000000000000000000000000000000000000000000600052602260045260246000fd5b613991806200021e6000396000f3fe608060405234801561001057600080fd5b50600436106101375760003560e01c80634f6ccce7116100b857806395d89b411161007c57806395d89b4114610372578063a22cb46514610390578063b88d4fde146103ac578063c87b56dd146103c8578063e985e9c5146103f8578063eacabe141461042857610137565b80634f6ccce7146102bc57806355f804b3146102ec5780636352211e1461030857806370a082311461033857806383197ef01461036857610137565b806323b872dd116100ff57806323b872dd146101f45780632890e0d7146102105780632a6ffd2c146102405780632f745c591461027057806342842e0e146102a057610137565b806301ffc9a71461013c57806306fdde031461016c578063081812fc1461018a578063095ea7b3146101ba57806318160ddd146101d6575b600080fd5b610156600480360381019061015191906127b5565b610458565b6040516101639190612c88565b60405180910390f35b61017461046a565b6040516101819190612ca3565b60405180910390f35b6101a4600480360381019061019f9190612848565b6104fc565b6040516101b19190612c21565b60405180910390f35b6101d460048036038101906101cf9190612779565b610581565b005b6101de610699565b6040516101eb9190612f45565b60405180910390f35b61020e6004803603810190610209919061261f565b6106a6565b005b61022a60048036038101906102259190612848565b610706565b6040516102379190612f45565b60405180910390f35b61025a6004803603810190610255919061261f565b61078f565b6040516102679190612f45565b60405180910390f35b61028a60048036038101906102859190612779565b61081c565b6040516102979190612f45565b60405180910390f35b6102ba60048036038101906102b5919061261f565b6108c1565b005b6102d660048036038101906102d19190612848565b6108e1565b6040516102e39190612f45565b60405180910390f35b61030660048036038101906103019190612807565b610978565b005b610322600480360381019061031d9190612848565b610992565b60405161032f9190612c21565b60405180910390f35b610352600480360381019061034d91906125ba565b610a44565b60405161035f9190612f45565b60405180910390f35b610370610afc565b005b61037a610bc7565b6040516103879190612ca3565b60405180910390f35b6103aa60048036038101906103a591906126e9565b610c59565b005b6103c660048036038101906103c1919061266e565b610c6f565b005b6103e260048036038101906103dd9190612848565b610cd1565b6040516103ef9190612ca3565b60405180910390f35b610412600480360381019061040d91906125e3565b610e44565b60405161041f9190612c88565b60405180910390f35b610442600480360381019061043d9190612725565b610ed8565b60405161044f9190612f45565b60405180910390f35b600061046382610f10565b9050919050565b6060600080546104799061319b565b80601f01602080910402602001604051908101604052809291908181526020018280546104a59061319b565b80156104f25780601f106104c7576101008083540402835291602001916104f2565b820191906000526020600020905b8154815290600101906020018083116104d557829003601f168201915b5050505050905090565b600061050782610f8a565b610546576040517f08c379a000000000000000000000000000000000000000000000000000000000815260040161053d90612e25565b60405180910390fd5b6004600083815260200190815260200160002060009054906101000a900473ffffffffffffffffffffffffffffffffffffffff169050919050565b600061058c82610992565b90508073ffffffffffffffffffffffffffffffffffffffff168373ffffffffffffffffffffffffffffffffffffffff1614156105fd576040517f08c379a00000000000000000000000000000000000000000000000000000000081526004016105f490612ea5565b60405180910390fd5b8073ffffffffffffffffffffffffffffffffffffffff1661061c610ff6565b73ffffffffffffffffffffffffffffffffffffffff16148061064b575061064a81610645610ff6565b610e44565b5b61068a576040517f08c379a000000000000000000000000000000000000000000000000000000000815260040161068190612da5565b60405180910390fd5b6106948383610ffe565b505050565b6000600880549050905090565b6106b76106b1610ff6565b826110b7565b6106f6576040517f08c379a00000000000000000000000000000000000000000000000000000000081526004016106ed90612ee5565b60405180910390fd5b610701838383611195565b505050565b600061071182610992565b73ffffffffffffffffffffffffffffffffffffffff163373ffffffffffffffffffffffffffffffffffffffff161461077e576040517f08c379a000000000000000000000000000000000000000000000000000000000815260040161077590612e45565b60405180910390fd5b610787826113fc565b819050919050565b600061079a82610992565b73ffffffffffffffffffffffffffffffffffffffff163373ffffffffffffffffffffffffffffffffffffffff1614610807576040517f08c379a00000000000000000000000000000000000000000000000000000000081526004016107fe90612f25565b60405180910390fd5b6108128484846106a6565b8190509392505050565b600061082783610a44565b8210610868576040517f08c379a000000000000000000000000000000000000000000000000000000000815260040161085f90612cc5565b60405180910390fd5b600660008473ffffffffffffffffffffffffffffffffffffffff1673ffffffffffffffffffffffffffffffffffffffff168152602001908152602001600020600083815260200190815260200160002054905092915050565b6108dc83838360405180602001604052806000815250610c6f565b505050565b60006108eb610699565b821061092c576040517f08c379a000000000000000000000000000000000000000000000000000000000815260040161092390612f05565b60405180910390fd5b60088281548110610966577f4e487b7100000000000000000000000000000000000000000000000000000000600052603260045260246000fd5b90600052602060002001549050919050565b80600e908051906020019061098e92919061239e565b5050565b6000806002600084815260200190815260200160002060009054906101000a900473ffffffffffffffffffffffffffffffffffffffff169050600073ffffffffffffffffffffffffffffffffffffffff168173ffffffffffffffffffffffffffffffffffffffff161415610a3b576040517f08c379a0000000000000000000000000000000000000000000000000000000008152600401610a3290612de5565b60405180910390fd5b80915050919050565b60008073ffffffffffffffffffffffffffffffffffffffff168273ffffffffffffffffffffffffffffffffffffffff161415610ab5576040517f08c379a0000000000000000000000000000000000000000000000000000000008152600401610aac90612dc5565b60405180910390fd5b600360008373ffffffffffffffffffffffffffffffffffffffff1673ffffffffffffffffffffffffffffffffffffffff168152602001908152602001600020549050919050565b600c60009054906101000a900473ffffffffffffffffffffffffffffffffffffffff1673ffffffffffffffffffffffffffffffffffffffff163373ffffffffffffffffffffffffffffffffffffffff1614610b8c576040517f08c379a0000000000000000000000000000000000000000000000000000000008152600401610b8390612ec5565b60405180910390fd5b600c60009054906101000a900473ffffffffffffffffffffffffffffffffffffffff1673ffffffffffffffffffffffffffffffffffffffff16ff5b606060018054610bd69061319b565b80601f0160208091040260200160405190810160405280929190818152602001828054610c029061319b565b8015610c4f5780601f10610c2457610100808354040283529160200191610c4f565b820191906000526020600020905b815481529060010190602001808311610c3257829003601f168201915b5050505050905090565b610c6b610c64610ff6565b8383611408565b5050565b610c80610c7a610ff6565b836110b7565b610cbf576040517f08c379a0000000000000000000000000000000000000000000000000000000008152600401610cb690612ee5565b60405180910390fd5b610ccb84848484611575565b50505050565b6060610cdc82610f8a565b610d1b576040517f08c379a0000000000000000000000000000000000000000000000000000000008152600401610d1290612e85565b60405180910390fd5b6000600d60008481526020019081526020016000208054610d3b9061319b565b80601f0160208091040260200160405190810160405280929190818152602001828054610d679061319b565b8015610db45780601f10610d8957610100808354040283529160200191610db4565b820191906000526020600020905b815481529060010190602001808311610d9757829003601f168201915b505050505090506000610dc56115d1565b9050600081511415610ddb578192505050610e3f565b600082511115610e10578082604051602001610df8929190612bfd565b60405160208183030381529060405292505050610e3f565b80610e1a85611663565b604051602001610e2b929190612bfd565b604051602081830303815290604052925050505b919050565b6000600560008473ffffffffffffffffffffffffffffffffffffffff1673ffffffffffffffffffffffffffffffffffffffff16815260200190815260200160002060008373ffffffffffffffffffffffffffffffffffffffff1673ffffffffffffffffffffffffffffffffffffffff16815260200190815260200160002060009054906101000a900460ff16905092915050565b6000610ee4600b611810565b6000610ef0600b611826565b9050610efc8482611834565b610f068184611a0e565b8091505092915050565b60007f780e9d63000000000000000000000000000000000000000000000000000000007bffffffffffffffffffffffffffffffffffffffffffffffffffffffff1916827bffffffffffffffffffffffffffffffffffffffffffffffffffffffff19161480610f835750610f8282611a82565b5b9050919050565b60008073ffffffffffffffffffffffffffffffffffffffff166002600084815260200190815260200160002060009054906101000a900473ffffffffffffffffffffffffffffffffffffffff1673ffffffffffffffffffffffffffffffffffffffff1614159050919050565b600033905090565b816004600083815260200190815260200160002060006101000a81548173ffffffffffffffffffffffffffffffffffffffff021916908373ffffffffffffffffffffffffffffffffffffffff160217905550808273ffffffffffffffffffffffffffffffffffffffff1661107183610992565b73ffffffffffffffffffffffffffffffffffffffff167f8c5be1e5ebec7d5bd14f71427d1e84f3dd0314c0f7b2291e5b200ac8c7c3b92560405160405180910390a45050565b60006110c282610f8a565b611101576040517f08c379a00000000000000000000000000000000000000000000000000000000081526004016110f890612d85565b60405180910390fd5b600061110c83610992565b90508073ffffffffffffffffffffffffffffffffffffffff168473ffffffffffffffffffffffffffffffffffffffff16148061114e575061114d8185610e44565b5b8061118c57508373ffffffffffffffffffffffffffffffffffffffff16611174846104fc565b73ffffffffffffffffffffffffffffffffffffffff16145b91505092915050565b8273ffffffffffffffffffffffffffffffffffffffff166111b582610992565b73ffffffffffffffffffffffffffffffffffffffff161461120b576040517f08c379a000000000000000000000000000000000000000000000000000000000815260040161120290612d05565b60405180910390fd5b600073ffffffffffffffffffffffffffffffffffffffff168273ffffffffffffffffffffffffffffffffffffffff16141561127b576040517f08c379a000000000000000000000000000000000000000000000000000000000815260040161127290612d45565b60405180910390fd5b611286838383611b64565b611291600082610ffe565b6001600360008573ffffffffffffffffffffffffffffffffffffffff1673ffffffffffffffffffffffffffffffffffffffff16815260200190815260200160002060008282546112e191906130b1565b925050819055506001600360008473ffffffffffffffffffffffffffffffffffffffff1673ffffffffffffffffffffffffffffffffffffffff1681526020019081526020016000206000828254611338919061302a565b92505081905550816002600083815260200190815260200160002060006101000a81548173ffffffffffffffffffffffffffffffffffffffff021916908373ffffffffffffffffffffffffffffffffffffffff160217905550808273ffffffffffffffffffffffffffffffffffffffff168473ffffffffffffffffffffffffffffffffffffffff167fddf252ad1be2c89b69c2b068fc378daa952ba7f163c4a11628f55a4df523b3ef60405160405180910390a46113f7838383611b74565b505050565b61140581611b79565b50565b8173ffffffffffffffffffffffffffffffffffffffff168373ffffffffffffffffffffffffffffffffffffffff161415611477576040517f08c379a000000000000000000000000000000000000000000000000000000000815260040161146e90612d65565b60405180910390fd5b80600560008573ffffffffffffffffffffffffffffffffffffffff1673ffffffffffffffffffffffffffffffffffffffff16815260200190815260200160002060008473ffffffffffffffffffffffffffffffffffffffff1673ffffffffffffffffffffffffffffffffffffffff16815260200190815260200160002060006101000a81548160ff0219169083151502179055508173ffffffffffffffffffffffffffffffffffffffff168373ffffffffffffffffffffffffffffffffffffffff167f17307eab39ab6107e8899845ad3d59bd9653f200f220920489ca2b5937696c31836040516115689190612c88565b60405180910390a3505050565b611580848484611195565b61158c84848484611bcc565b6115cb576040517f08c379a00000000000000000000000000000000000000000000000000000000081526004016115c290612ce5565b60405180910390fd5b50505050565b6060600e80546115e09061319b565b80601f016020809104026020016040519081016040528092919081815260200182805461160c9061319b565b80156116595780601f1061162e57610100808354040283529160200191611659565b820191906000526020600020905b81548152906001019060200180831161163c57829003601f168201915b5050505050905090565b606060008214156116ab576040518060400160405280600181526020017f3000000000000000000000000000000000000000000000000000000000000000815250905061180b565b600082905060005b600082146116dd5780806116c6906131fe565b915050600a826116d69190613080565b91506116b3565b60008167ffffffffffffffff81111561171f577f4e487b7100000000000000000000000000000000000000000000000000000000600052604160045260246000fd5b6040519080825280601f01601f1916602001820160405280156117515781602001600182028036833780820191505090505b5090505b600085146118045760018261176a91906130b1565b9150600a856117799190613247565b6030611785919061302a565b60f81b8183815181106117c1577f4e487b7100000000000000000000000000000000000000000000000000000000600052603260045260246000fd5b60200101907effffffffffffffffffffffffffffffffffffffffffffffffffffffffffffff1916908160001a905350600a856117fd9190613080565b9450611755565b8093505050505b919050565b6001816000016000828254019250508190555050565b600081600001549050919050565b600073ffffffffffffffffffffffffffffffffffffffff168273ffffffffffffffffffffffffffffffffffffffff1614156118a4576040517f08c379a000000000000000000000000000000000000000000000000000000000815260040161189b90612e05565b60405180910390fd5b6118ad81610f8a565b156118ed576040517f08c379a00000000000000000000000000000000000000000000000000000000081526004016118e490612d25565b60405180910390fd5b6118f960008383611b64565b6001600360008473ffffffffffffffffffffffffffffffffffffffff1673ffffffffffffffffffffffffffffffffffffffff1681526020019081526020016000206000828254611949919061302a565b92505081905550816002600083815260200190815260200160002060006101000a81548173ffffffffffffffffffffffffffffffffffffffff021916908373ffffffffffffffffffffffffffffffffffffffff160217905550808273ffffffffffffffffffffffffffffffffffffffff16600073ffffffffffffffffffffffffffffffffffffffff167fddf252ad1be2c89b69c2b068fc378daa952ba7f163c4a11628f55a4df523b3ef60405160405180910390a4611a0a60008383611b74565b5050565b611a1782610f8a565b611a56576040517f08c379a0000000000000000000000000000000000000000000000000000000008152600401611a4d90612e65565b60405180910390fd5b80600d60008481526020019081526020016000209080519060200190611a7d92919061239e565b505050565b60007f80ac58cd000000000000000000000000000000000000000000000000000000007bffffffffffffffffffffffffffffffffffffffffffffffffffffffff1916827bffffffffffffffffffffffffffffffffffffffffffffffffffffffff19161480611b4d57507f5b5e139f000000000000000000000000000000000000000000000000000000007bffffffffffffffffffffffffffffffffffffffffffffffffffffffff1916827bffffffffffffffffffffffffffffffffffffffffffffffffffffffff1916145b80611b5d5750611b5c82611d63565b5b9050919050565b611b6f838383611dcd565b505050565b505050565b611b8281611ee1565b6000600a60008381526020019081526020016000208054611ba29061319b565b905014611bc957600a60008281526020019081526020016000206000611bc89190612424565b5b50565b6000611bed8473ffffffffffffffffffffffffffffffffffffffff16611ffe565b15611d56578373ffffffffffffffffffffffffffffffffffffffff1663150b7a02611c16610ff6565b8786866040518563ffffffff1660e01b8152600401611c389493929190612c3c565b602060405180830381600087803b158015611c5257600080fd5b505af1925050508015611c8357506040513d601f19601f82011682018060405250810190611c8091906127de565b60015b611d06573d8060008114611cb3576040519150601f19603f3d011682016040523d82523d6000602084013e611cb8565b606091505b50600081511415611cfe576040517f08c379a0000000000000000000000000000000000000000000000000000000008152600401611cf590612ce5565b60405180910390fd5b805181602001fd5b63150b7a0260e01b7bffffffffffffffffffffffffffffffffffffffffffffffffffffffff1916817bffffffffffffffffffffffffffffffffffffffffffffffffffffffff191614915050611d5b565b600190505b949350505050565b60007f01ffc9a7000000000000000000000000000000000000000000000000000000007bffffffffffffffffffffffffffffffffffffffffffffffffffffffff1916827bffffffffffffffffffffffffffffffffffffffffffffffffffffffff1916149050919050565b611dd8838383612021565b600073ffffffffffffffffffffffffffffffffffffffff168373ffffffffffffffffffffffffffffffffffffffff161415611e1b57611e1681612026565b611e5a565b8173ffffffffffffffffffffffffffffffffffffffff168373ffffffffffffffffffffffffffffffffffffffff1614611e5957611e58838261206f565b5b5b600073ffffffffffffffffffffffffffffffffffffffff168273ffffffffffffffffffffffffffffffffffffffff161415611e9d57611e98816121dc565b611edc565b8273ffffffffffffffffffffffffffffffffffffffff168273ffffffffffffffffffffffffffffffffffffffff1614611edb57611eda828261231f565b5b5b505050565b6000611eec82610992565b9050611efa81600084611b64565b611f05600083610ffe565b6001600360008373ffffffffffffffffffffffffffffffffffffffff1673ffffffffffffffffffffffffffffffffffffffff1681526020019081526020016000206000828254611f5591906130b1565b925050819055506002600083815260200190815260200160002060006101000a81549073ffffffffffffffffffffffffffffffffffffffff021916905581600073ffffffffffffffffffffffffffffffffffffffff168273ffffffffffffffffffffffffffffffffffffffff167fddf252ad1be2c89b69c2b068fc378daa952ba7f163c4a11628f55a4df523b3ef60405160405180910390a4611ffa81600084611b74565b5050565b6000808273ffffffffffffffffffffffffffffffffffffffff163b119050919050565b505050565b6008805490506009600083815260200190815260200160002081905550600881908060018154018082558091505060019003906000526020600020016000909190919091505550565b6000600161207c84610a44565b61208691906130b1565b905060006007600084815260200190815260200160002054905081811461216b576000600660008673ffffffffffffffffffffffffffffffffffffffff1673ffffffffffffffffffffffffffffffffffffffff168152602001908152602001600020600084815260200190815260200160002054905080600660008773ffffffffffffffffffffffffffffffffffffffff1673ffffffffffffffffffffffffffffffffffffffff168152602001908152602001600020600084815260200190815260200160002081905550816007600083815260200190815260200160002081905550505b6007600084815260200190815260200160002060009055600660008573ffffffffffffffffffffffffffffffffffffffff1673ffffffffffffffffffffffffffffffffffffffff16815260200190815260200160002060008381526020019081526020016000206000905550505050565b600060016008805490506121f091906130b1565b9050600060096000848152602001908152602001600020549050600060088381548110612246577f4e487b7100000000000000000000000000000000000000000000000000000000600052603260045260246000fd5b90600052602060002001549050806008838154811061228e577f4e487b7100000000000000000000000000000000000000000000000000000000600052603260045260246000fd5b906000526020600020018190555081600960008381526020019081526020016000208190555060096000858152602001908152602001600020600090556008805480612303577f4e487b7100000000000000000000000000000000000000000000000000000000600052603160045260246000fd5b6001900381819060005260206000200160009055905550505050565b600061232a83610a44565b905081600660008573ffffffffffffffffffffffffffffffffffffffff1673ffffffffffffffffffffffffffffffffffffffff168152602001908152602001600020600083815260200190815260200160002081905550806007600084815260200190815260200160002081905550505050565b8280546123aa9061319b565b90600052602060002090601f0160209004810192826123cc5760008555612413565b82601f106123e557805160ff1916838001178555612413565b82800160010185558215612413579182015b828111156124125782518255916020019190600101906123f7565b5b5090506124209190612464565b5090565b5080546124309061319b565b6000825580601f106124425750612461565b601f0160209004906000526020600020908101906124609190612464565b5b50565b5b8082111561247d576000816000905550600101612465565b5090565b600061249461248f84612f85565b612f60565b9050828152602081018484840111156124ac57600080fd5b6124b7848285613159565b509392505050565b60006124d26124cd84612fb6565b612f60565b9050828152602081018484840111156124ea57600080fd5b6124f5848285613159565b509392505050565b60008135905061250c816138ff565b92915050565b60008135905061252181613916565b92915050565b6000813590506125368161392d565b92915050565b60008151905061254b8161392d565b92915050565b600082601f83011261256257600080fd5b8135612572848260208601612481565b91505092915050565b600082601f83011261258c57600080fd5b813561259c8482602086016124bf565b91505092915050565b6000813590506125b481613944565b92915050565b6000602082840312156125cc57600080fd5b60006125da848285016124fd565b91505092915050565b600080604083850312156125f657600080fd5b6000612604858286016124fd565b9250506020612615858286016124fd565b9150509250929050565b60008060006060848603121561263457600080fd5b6000612642868287016124fd565b9350506020612653868287016124fd565b9250506040612664868287016125a5565b9150509250925092565b6000806000806080858703121561268457600080fd5b6000612692878288016124fd565b94505060206126a3878288016124fd565b93505060406126b4878288016125a5565b925050606085013567ffffffffffffffff8111156126d157600080fd5b6126dd87828801612551565b91505092959194509250565b600080604083850312156126fc57600080fd5b600061270a858286016124fd565b925050602061271b85828601612512565b9150509250929050565b6000806040838503121561273857600080fd5b6000612746858286016124fd565b925050602083013567ffffffffffffffff81111561276357600080fd5b61276f8582860161257b565b9150509250929050565b6000806040838503121561278c57600080fd5b600061279a858286016124fd565b92505060206127ab858286016125a5565b9150509250929050565b6000602082840312156127c757600080fd5b60006127d584828501612527565b91505092915050565b6000602082840312156127f057600080fd5b60006127fe8482850161253c565b91505092915050565b60006020828403121561281957600080fd5b600082013567ffffffffffffffff81111561283357600080fd5b61283f8482850161257b565b91505092915050565b60006020828403121561285a57600080fd5b6000612868848285016125a5565b91505092915050565b61287a816130e5565b82525050565b612889816130f7565b82525050565b600061289a82612fe7565b6128a48185612ffd565b93506128b4818560208601613168565b6128bd81613334565b840191505092915050565b60006128d382612ff2565b6128dd818561300e565b93506128ed818560208601613168565b6128f681613334565b840191505092915050565b600061290c82612ff2565b612916818561301f565b9350612926818560208601613168565b80840191505092915050565b600061293f602b8361300e565b915061294a82613345565b604082019050919050565b600061296260328361300e565b915061296d82613394565b604082019050919050565b600061298560258361300e565b9150612990826133e3565b604082019050919050565b60006129a8601c8361300e565b91506129b382613432565b602082019050919050565b60006129cb60248361300e565b91506129d68261345b565b604082019050919050565b60006129ee60198361300e565b91506129f9826134aa565b602082019050919050565b6000612a11602c8361300e565b9150612a1c826134d3565b604082019050919050565b6000612a3460388361300e565b9150612a3f82613522565b604082019050919050565b6000612a57602a8361300e565b9150612a6282613571565b604082019050919050565b6000612a7a60298361300e565b9150612a85826135c0565b604082019050919050565b6000612a9d60208361300e565b9150612aa88261360f565b602082019050919050565b6000612ac0602c8361300e565b9150612acb82613638565b604082019050919050565b6000612ae3602b8361300e565b9150612aee82613687565b604082019050919050565b6000612b06602c8361300e565b9150612b11826136d6565b604082019050919050565b6000612b29602f8361300e565b9150612b3482613725565b604082019050919050565b6000612b4c60218361300e565b9150612b5782613774565b604082019050919050565b6000612b6f60318361300e565b9150612b7a826137c3565b604082019050919050565b6000612b9260318361300e565b9150612b9d82613812565b604082019050919050565b6000612bb5602c8361300e565b9150612bc082613861565b604082019050919050565b6000612bd8602f8361300e565b9150612be3826138b0565b604082019050919050565b612bf78161314f565b82525050565b6000612c098285612901565b9150612c158284612901565b91508190509392505050565b6000602082019050612c366000830184612871565b92915050565b6000608082019050612c516000830187612871565b612c5e6020830186612871565b612c6b6040830185612bee565b8181036060830152612c7d818461288f565b905095945050505050565b6000602082019050612c9d6000830184612880565b92915050565b60006020820190508181036000830152612cbd81846128c8565b905092915050565b60006020820190508181036000830152612cde81612932565b9050919050565b60006020820190508181036000830152612cfe81612955565b9050919050565b60006020820190508181036000830152612d1e81612978565b9050919050565b60006020820190508181036000830152612d3e8161299b565b9050919050565b60006020820190508181036000830152612d5e816129be565b9050919050565b60006020820190508181036000830152612d7e816129e1565b9050919050565b60006020820190508181036000830152612d9e81612a04565b9050919050565b60006020820190508181036000830152612dbe81612a27565b9050919050565b60006020820190508181036000830152612dde81612a4a565b9050919050565b60006020820190508181036000830152612dfe81612a6d565b9050919050565b60006020820190508181036000830152612e1e81612a90565b9050919050565b60006020820190508181036000830152612e3e81612ab3565b9050919050565b60006020820190508181036000830152612e5e81612ad6565b9050919050565b60006020820190508181036000830152612e7e81612af9565b9050919050565b60006020820190508181036000830152612e9e81612b1c565b9050919050565b60006020820190508181036000830152612ebe81612b3f565b9050919050565b60006020820190508181036000830152612ede81612b62565b9050919050565b60006020820190508181036000830152612efe81612b85565b9050919050565b60006020820190508181036000830152612f1e81612ba8565b9050919050565b60006020820190508181036000830152612f3e81612bcb565b9050919050565b6000602082019050612f5a6000830184612bee565b92915050565b6000612f6a612f7b565b9050612f7682826131cd565b919050565b6000604051905090565b600067ffffffffffffffff821115612fa057612f9f613305565b5b612fa982613334565b9050602081019050919050565b600067ffffffffffffffff821115612fd157612fd0613305565b5b612fda82613334565b9050602081019050919050565b600081519050919050565b600081519050919050565b600082825260208201905092915050565b600082825260208201905092915050565b600081905092915050565b60006130358261314f565b91506130408361314f565b9250827fffffffffffffffffffffffffffffffffffffffffffffffffffffffffffffffff0382111561307557613074613278565b5b828201905092915050565b600061308b8261314f565b91506130968361314f565b9250826130a6576130a56132a7565b5b828204905092915050565b60006130bc8261314f565b91506130c78361314f565b9250828210156130da576130d9613278565b5b828203905092915050565b60006130f08261312f565b9050919050565b60008115159050919050565b60007fffffffff0000000000000000000000000000000000000000000000000000000082169050919050565b600073ffffffffffffffffffffffffffffffffffffffff82169050919050565b6000819050919050565b82818337600083830152505050565b60005b8381101561318657808201518184015260208101905061316b565b83811115613195576000848401525b50505050565b600060028204905060018216806131b357607f821691505b602082108114156131c7576131c66132d6565b5b50919050565b6131d682613334565b810181811067ffffffffffffffff821117156131f5576131f4613305565b5b80604052505050565b60006132098261314f565b91507fffffffffffffffffffffffffffffffffffffffffffffffffffffffffffffffff82141561323c5761323b613278565b5b600182019050919050565b60006132528261314f565b915061325d8361314f565b92508261326d5761326c6132a7565b5b828206905092915050565b7f4e487b7100000000000000000000000000000000000000000000000000000000600052601160045260246000fd5b7f4e487b7100000000000000000000000000000000000000000000000000000000600052601260045260246000fd5b7f4e487b7100000000000000000000000000000000000000000000000000000000600052602260045260246000fd5b7f4e487b7100000000000000000000000000000000000000000000000000000000600052604160045260246000fd5b6000601f19601f8301169050919050565b7f455243373231456e756d657261626c653a206f776e657220696e646578206f7560008201527f74206f6620626f756e6473000000000000000000000000000000000000000000602082015250565b7f4552433732313a207472616e7366657220746f206e6f6e20455243373231526560008201527f63656976657220696d706c656d656e7465720000000000000000000000000000602082015250565b7f4552433732313a207472616e736665722066726f6d20696e636f72726563742060008201527f6f776e6572000000000000000000000000000000000000000000000000000000602082015250565b7f4552433732313a20746f6b656e20616c7265616479206d696e74656400000000600082015250565b7f4552433732313a207472616e7366657220746f20746865207a65726f2061646460008201527f7265737300000000000000000000000000000000000000000000000000000000602082015250565b7f4552433732313a20617070726f766520746f2063616c6c657200000000000000600082015250565b7f4552433732313a206f70657261746f7220717565727920666f72206e6f6e657860008201527f697374656e7420746f6b656e0000000000000000000000000000000000000000602082015250565b7f4552433732313a20617070726f76652063616c6c6572206973206e6f74206f7760008201527f6e6572206e6f7220617070726f76656420666f7220616c6c0000000000000000602082015250565b7f4552433732313a2062616c616e636520717565727920666f7220746865207a6560008201527f726f206164647265737300000000000000000000000000000000000000000000602082015250565b7f4552433732313a206f776e657220717565727920666f72206e6f6e657869737460008201527f656e7420746f6b656e0000000000000000000000000000000000000000000000602082015250565b7f4552433732313a206d696e7420746f20746865207a65726f2061646472657373600082015250565b7f4552433732313a20617070726f76656420717565727920666f72206e6f6e657860008201527f697374656e7420746f6b656e0000000000000000000000000000000000000000602082015250565b7f4f6e6c7920746865206f776e6572206f66207468697320546f6b656e20636f7560008201527f6c64204275726e20497421000000000000000000000000000000000000000000602082015250565b7f4552433732314d657461646174613a2055524920736574206f66206e6f6e657860008201527f697374656e7420746f6b656e0000000000000000000000000000000000000000602082015250565b7f4552433732314d657461646174613a2055524920717565727920666f72206e6f60008201527f6e6578697374656e7420746f6b656e0000000000000000000000000000000000602082015250565b7f4552433732313a20617070726f76616c20746f2063757272656e74206f776e6560008201527f7200000000000000000000000000000000000000000000000000000000000000602082015250565b7f4f6e6c7920746865206f776e6572206f66207468697320436f6e74726163742060008201527f636f756c642064657374726f7920497421000000000000000000000000000000602082015250565b7f4552433732313a207472616e736665722063616c6c6572206973206e6f74206f60008201527f776e6572206e6f7220617070726f766564000000000000000000000000000000602082015250565b7f455243373231456e756d657261626c653a20676c6f62616c20696e646578206f60008201527f7574206f6620626f756e64730000000000000000000000000000000000000000602082015250565b7f4f6e6c7920746865206f776e6572206f66207468697320546f6b656e20636f7560008201527f6c64207472616e73666572204974210000000000000000000000000000000000602082015250565b613908816130e5565b811461391357600080fd5b50565b61391f816130f7565b811461392a57600080fd5b50565b61393681613103565b811461394157600080fd5b50565b61394d8161314f565b811461395857600080fd5b5056fea2646970667358221220da66485bba6340da20af94389c04e1e12a17d49b1bac6d84ba6aeb62c1b59e2564736f6c63430008040033",
  "linkReferences": {},
  "deployedLinkReferences": {}
}