{
  "_format": "hh-sol-artifact-1",
  "contractName": "November",
  "sourceName": "contracts/November.sol",
  "abi": [
    {
      "inputs": [],
      "stateMutability": "nonpayable",
      "type": "constructor"
    },
    {
      "anonymous": false,
      "inputs": [
        {
          "indexed": true,
          "internalType": "address",
          "name": "owner",
          "type": "address"
        },
        {
          "indexed": true,
          "internalType": "address",
          "name": "approved",
          "type": "address"
        },
        {
          "indexed": true,
          "internalType": "uint256",
          "name": "tokenId",
          "type": "uint256"
        }
      ],
      "name": "Approval",
      "type": "event"
    },
    {
      "anonymous": false,
      "inputs": [
        {
          "indexed": true,
          "internalType": "address",
          "name": "owner",
          "type": "address"
        },
        {
          "indexed": true,
          "internalType": "address",
          "name": "operator",
          "type": "address"
        },
        {
          "indexed": false,
          "internalType": "bool",
          "name": "approved",
          "type": "bool"
        }
      ],
      "name": "ApprovalForAll",
      "type": "event"
    },
    {
      "anonymous": false,
      "inputs": [
        {
          "indexed": true,
          "internalType": "address",
          "name": "from",
          "type": "address"
        },
        {
          "indexed": true,
          "internalType": "address",
          "name": "to",
          "type": "address"
        },
        {
          "indexed": true,
          "internalType": "uint256",
          "name": "tokenId",
          "type": "uint256"
        }
      ],
      "name": "Transfer",
      "type": "event"
    },
    {
      "inputs": [
        {
          "internalType": "address",
          "name": "to",
          "type": "address"
        },
        {
          "internalType": "uint256",
          "name": "tokenId",
          "type": "uint256"
        }
      ],
      "name": "approve",
      "outputs": [],
      "stateMutability": "nonpayable",
      "type": "function"
    },
    {
      "inputs": [
        {
          "internalType": "address",
          "name": "owner",
          "type": "address"
        }
      ],
      "name": "balanceOf",
      "outputs": [
        {
          "internalType": "uint256",
          "name": "",
          "type": "uint256"
        }
      ],
      "stateMutability": "view",
      "type": "function"
    },
    {
      "inputs": [
        {
          "internalType": "uint256",
          "name": "tokenId",
          "type": "uint256"
        }
      ],
      "name": "getApproved",
      "outputs": [
        {
          "internalType": "address",
          "name": "",
          "type": "address"
        }
      ],
      "stateMutability": "view",
      "type": "function"
    },
    {
      "inputs": [
        {
          "internalType": "address",
          "name": "owner",
          "type": "address"
        },
        {
          "internalType": "address",
          "name": "operator",
          "type": "address"
        }
      ],
      "name": "isApprovedForAll",
      "outputs": [
        {
          "internalType": "bool",
          "name": "",
          "type": "bool"
        }
      ],
      "stateMutability": "view",
      "type": "function"
    },
    {
      "inputs": [],
      "name": "mint",
      "outputs": [],
      "stateMutability": "payable",
      "type": "function"
    },
    {
      "inputs": [],
      "name": "name",
      "outputs": [
        {
          "internalType": "string",
          "name": "",
          "type": "string"
        }
      ],
      "stateMutability": "view",
      "type": "function"
    },
    {
      "inputs": [
        {
          "internalType": "uint256",
          "name": "tokenId",
          "type": "uint256"
        }
      ],
      "name": "ownerOf",
      "outputs": [
        {
          "internalType": "address",
          "name": "",
          "type": "address"
        }
      ],
      "stateMutability": "view",
      "type": "function"
    },
    {
      "inputs": [
        {
          "internalType": "address",
          "name": "from",
          "type": "address"
        },
        {
          "internalType": "address",
          "name": "to",
          "type": "address"
        },
        {
          "internalType": "uint256",
          "name": "tokenId",
          "type": "uint256"
        }
      ],
      "name": "safeTransferFrom",
      "outputs": [],
      "stateMutability": "nonpayable",
      "type": "function"
    },
    {
      "inputs": [
        {
          "internalType": "address",
          "name": "from",
          "type": "address"
        },
        {
          "internalType": "address",
          "name": "to",
          "type": "address"
        },
        {
          "internalType": "uint256",
          "name": "tokenId",
          "type": "uint256"
        },
        {
          "internalType": "bytes",
          "name": "_data",
          "type": "bytes"
        }
      ],
      "name": "safeTransferFrom",
      "outputs": [],
      "stateMutability": "nonpayable",
      "type": "function"
    },
    {
      "inputs": [
        {
          "internalType": "address",
          "name": "operator",
          "type": "address"
        },
        {
          "internalType": "bool",
          "name": "approved",
          "type": "bool"
        }
      ],
      "name": "setApprovalForAll",
      "outputs": [],
      "stateMutability": "nonpayable",
      "type": "function"
    },
    {
      "inputs": [
        {
          "internalType": "bytes4",
          "name": "interfaceId",
          "type": "bytes4"
        }
      ],
      "name": "supportsInterface",
      "outputs": [
        {
          "internalType": "bool",
          "name": "",
          "type": "bool"
        }
      ],
      "stateMutability": "view",
      "type": "function"
    },
    {
      "inputs": [],
      "name": "symbol",
      "outputs": [
        {
          "internalType": "string",
          "name": "",
          "type": "string"
        }
      ],
      "stateMutability": "view",
      "type": "function"
    },
    {
      "inputs": [
        {
          "internalType": "uint256",
          "name": "tokenId",
          "type": "uint256"
        }
      ],
      "name": "tokenURI",
      "outputs": [
        {
          "internalType": "string",
          "name": "",
          "type": "string"
        }
      ],
      "stateMutability": "view",
      "type": "function"
    },
    {
      "inputs": [
        {
          "internalType": "address",
          "name": "from",
          "type": "address"
        },
        {
          "internalType": "address",
          "name": "to",
          "type": "address"
        },
        {
          "internalType": "uint256",
          "name": "tokenId",
          "type": "uint256"
        }
      ],
      "name": "transferFrom",
      "outputs": [],
      "stateMutability": "nonpayable",
      "type": "function"
    }
  ],
  "bytecode": "0x60806040523480156200001157600080fd5b506040518060400160405280600881526020017f4e6f76656d6265720000000000000000000000000000000000000000000000008152506040518060400160405280600881526020017f4e4f56454d424552000000000000000000000000000000000000000000000000815250816000908051906020019062000096929190620000b8565b508060019080519060200190620000af929190620000b8565b505050620001cd565b828054620000c69062000168565b90600052602060002090601f016020900481019282620000ea576000855562000136565b82601f106200010557805160ff191683800117855562000136565b8280016001018555821562000136579182015b828111156200013557825182559160200191906001019062000118565b5b50905062000145919062000149565b5090565b5b80821115620001645760008160009055506001016200014a565b5090565b600060028204905060018216806200018157607f821691505b602082108114156200019857620001976200019e565b5b50919050565b7f4e487b7100000000000000000000000000000000000000000000000000000000600052602260045260246000fd5b612bef80620001dd6000396000f3fe6080604052600436106100dd5760003560e01c80636352211e1161007f578063a22cb46511610059578063a22cb465146102b1578063b88d4fde146102da578063c87b56dd14610303578063e985e9c514610340576100dd565b80636352211e1461020c57806370a082311461024957806395d89b4114610286576100dd565b8063095ea7b3116100bb578063095ea7b3146101875780631249c58b146101b057806323b872dd146101ba57806342842e0e146101e3576100dd565b806301ffc9a7146100e257806306fdde031461011f578063081812fc1461014a575b600080fd5b3480156100ee57600080fd5b5061010960048036038101906101049190611c1f565b61037d565b6040516101169190612048565b60405180910390f35b34801561012b57600080fd5b5061013461045f565b6040516101419190612063565b60405180910390f35b34801561015657600080fd5b50610171600480360381019061016c9190611c71565b6104f1565b60405161017e9190611fe1565b60405180910390f35b34801561019357600080fd5b506101ae60048036038101906101a99190611be3565b610576565b005b6101b861068e565b005b3480156101c657600080fd5b506101e160048036038101906101dc9190611add565b610708565b005b3480156101ef57600080fd5b5061020a60048036038101906102059190611add565b610768565b005b34801561021857600080fd5b50610233600480360381019061022e9190611c71565b610788565b6040516102409190611fe1565b60405180910390f35b34801561025557600080fd5b50610270600480360381019061026b9190611a78565b61083a565b60405161027d91906122a5565b60405180910390f35b34801561029257600080fd5b5061029b6108f2565b6040516102a89190612063565b60405180910390f35b3480156102bd57600080fd5b506102d860048036038101906102d39190611ba7565b610984565b005b3480156102e657600080fd5b5061030160048036038101906102fc9190611b2c565b61099a565b005b34801561030f57600080fd5b5061032a60048036038101906103259190611c71565b6109fc565b6040516103379190612063565b60405180910390f35b34801561034c57600080fd5b5061036760048036038101906103629190611aa1565b610b4e565b6040516103749190612048565b60405180910390f35b60007f80ac58cd000000000000000000000000000000000000000000000000000000007bffffffffffffffffffffffffffffffffffffffffffffffffffffffff1916827bffffffffffffffffffffffffffffffffffffffffffffffffffffffff1916148061044857507f5b5e139f000000000000000000000000000000000000000000000000000000007bffffffffffffffffffffffffffffffffffffffffffffffffffffffff1916827bffffffffffffffffffffffffffffffffffffffffffffffffffffffff1916145b80610458575061045782610be2565b5b9050919050565b60606000805461046e906124ca565b80601f016020809104026020016040519081016040528092919081815260200182805461049a906124ca565b80156104e75780601f106104bc576101008083540402835291602001916104e7565b820191906000526020600020905b8154815290600101906020018083116104ca57829003601f168201915b5050505050905090565b60006104fc82610c4c565b61053b576040517f08c379a000000000000000000000000000000000000000000000000000000000815260040161053290612225565b60405180910390fd5b6004600083815260200190815260200160002060009054906101000a900473ffffffffffffffffffffffffffffffffffffffff169050919050565b600061058182610788565b90508073ffffffffffffffffffffffffffffffffffffffff168373ffffffffffffffffffffffffffffffffffffffff1614156105f2576040517f08c379a00000000000000000000000000000000000000000000000000000000081526004016105e990612265565b60405180910390fd5b8073ffffffffffffffffffffffffffffffffffffffff16610611610cb8565b73ffffffffffffffffffffffffffffffffffffffff161480610640575061063f8161063a610cb8565b610b4e565b5b61067f576040517f08c379a000000000000000000000000000000000000000000000000000000000815260040161067690612165565b60405180910390fd5b6106898383610cc0565b505050565b66038d7ea4c680003410156106d8576040517f08c379a00000000000000000000000000000000000000000000000000000000081526004016106cf906120e5565b60405180910390fd5b6106e3336000610d79565b6107066000604051806080016040528060428152602001612b7860429139610f53565b565b610719610713610cb8565b82610fc7565b610758576040517f08c379a000000000000000000000000000000000000000000000000000000000815260040161074f90612285565b60405180910390fd5b6107638383836110a5565b505050565b6107838383836040518060200160405280600081525061099a565b505050565b6000806002600084815260200190815260200160002060009054906101000a900473ffffffffffffffffffffffffffffffffffffffff169050600073ffffffffffffffffffffffffffffffffffffffff168173ffffffffffffffffffffffffffffffffffffffff161415610831576040517f08c379a0000000000000000000000000000000000000000000000000000000008152600401610828906121a5565b60405180910390fd5b80915050919050565b60008073ffffffffffffffffffffffffffffffffffffffff168273ffffffffffffffffffffffffffffffffffffffff1614156108ab576040517f08c379a00000000000000000000000000000000000000000000000000000000081526004016108a290612185565b60405180910390fd5b600360008373ffffffffffffffffffffffffffffffffffffffff1673ffffffffffffffffffffffffffffffffffffffff168152602001908152602001600020549050919050565b606060018054610901906124ca565b80601f016020809104026020016040519081016040528092919081815260200182805461092d906124ca565b801561097a5780601f1061094f5761010080835404028352916020019161097a565b820191906000526020600020905b81548152906001019060200180831161095d57829003601f168201915b5050505050905090565b61099661098f610cb8565b838361130c565b5050565b6109ab6109a5610cb8565b83610fc7565b6109ea576040517f08c379a00000000000000000000000000000000000000000000000000000000081526004016109e190612285565b60405180910390fd5b6109f684848484611479565b50505050565b6060610a0782610c4c565b610a46576040517f08c379a0000000000000000000000000000000000000000000000000000000008152600401610a3d90612205565b60405180910390fd5b6000600660008481526020019081526020016000208054610a66906124ca565b80601f0160208091040260200160405190810160405280929190818152602001828054610a92906124ca565b8015610adf5780601f10610ab457610100808354040283529160200191610adf565b820191906000526020600020905b815481529060010190602001808311610ac257829003601f168201915b505050505090506000610af06114d5565b9050600081511415610b06578192505050610b49565b600082511115610b3b578082604051602001610b23929190611fbd565b60405160208183030381529060405292505050610b49565b610b44846114ec565b925050505b919050565b6000600560008473ffffffffffffffffffffffffffffffffffffffff1673ffffffffffffffffffffffffffffffffffffffff16815260200190815260200160002060008373ffffffffffffffffffffffffffffffffffffffff1673ffffffffffffffffffffffffffffffffffffffff16815260200190815260200160002060009054906101000a900460ff16905092915050565b60007f01ffc9a7000000000000000000000000000000000000000000000000000000007bffffffffffffffffffffffffffffffffffffffffffffffffffffffff1916827bffffffffffffffffffffffffffffffffffffffffffffffffffffffff1916149050919050565b60008073ffffffffffffffffffffffffffffffffffffffff166002600084815260200190815260200160002060009054906101000a900473ffffffffffffffffffffffffffffffffffffffff1673ffffffffffffffffffffffffffffffffffffffff1614159050919050565b600033905090565b816004600083815260200190815260200160002060006101000a81548173ffffffffffffffffffffffffffffffffffffffff021916908373ffffffffffffffffffffffffffffffffffffffff160217905550808273ffffffffffffffffffffffffffffffffffffffff16610d3383610788565b73ffffffffffffffffffffffffffffffffffffffff167f8c5be1e5ebec7d5bd14f71427d1e84f3dd0314c0f7b2291e5b200ac8c7c3b92560405160405180910390a45050565b600073ffffffffffffffffffffffffffffffffffffffff168273ffffffffffffffffffffffffffffffffffffffff161415610de9576040517f08c379a0000000000000000000000000000000000000000000000000000000008152600401610de0906121e5565b60405180910390fd5b610df281610c4c565b15610e32576040517f08c379a0000000000000000000000000000000000000000000000000000000008152600401610e29906120c5565b60405180910390fd5b610e3e60008383611593565b6001600360008473ffffffffffffffffffffffffffffffffffffffff1673ffffffffffffffffffffffffffffffffffffffff1681526020019081526020016000206000828254610e8e9190612359565b92505081905550816002600083815260200190815260200160002060006101000a81548173ffffffffffffffffffffffffffffffffffffffff021916908373ffffffffffffffffffffffffffffffffffffffff160217905550808273ffffffffffffffffffffffffffffffffffffffff16600073ffffffffffffffffffffffffffffffffffffffff167fddf252ad1be2c89b69c2b068fc378daa952ba7f163c4a11628f55a4df523b3ef60405160405180910390a4610f4f60008383611598565b5050565b610f5c82610c4c565b610f9b576040517f08c379a0000000000000000000000000000000000000000000000000000000008152600401610f92906121c5565b60405180910390fd5b80600660008481526020019081526020016000209080519060200190610fc2929190611904565b505050565b6000610fd282610c4c565b611011576040517f08c379a000000000000000000000000000000000000000000000000000000000815260040161100890612145565b60405180910390fd5b600061101c83610788565b90508073ffffffffffffffffffffffffffffffffffffffff168473ffffffffffffffffffffffffffffffffffffffff16148061105e575061105d8185610b4e565b5b8061109c57508373ffffffffffffffffffffffffffffffffffffffff16611084846104f1565b73ffffffffffffffffffffffffffffffffffffffff16145b91505092915050565b8273ffffffffffffffffffffffffffffffffffffffff166110c582610788565b73ffffffffffffffffffffffffffffffffffffffff161461111b576040517f08c379a0000000000000000000000000000000000000000000000000000000008152600401611112906120a5565b60405180910390fd5b600073ffffffffffffffffffffffffffffffffffffffff168273ffffffffffffffffffffffffffffffffffffffff16141561118b576040517f08c379a000000000000000000000000000000000000000000000000000000000815260040161118290612105565b60405180910390fd5b611196838383611593565b6111a1600082610cc0565b6001600360008573ffffffffffffffffffffffffffffffffffffffff1673ffffffffffffffffffffffffffffffffffffffff16815260200190815260200160002060008282546111f191906123e0565b925050819055506001600360008473ffffffffffffffffffffffffffffffffffffffff1673ffffffffffffffffffffffffffffffffffffffff16815260200190815260200160002060008282546112489190612359565b92505081905550816002600083815260200190815260200160002060006101000a81548173ffffffffffffffffffffffffffffffffffffffff021916908373ffffffffffffffffffffffffffffffffffffffff160217905550808273ffffffffffffffffffffffffffffffffffffffff168473ffffffffffffffffffffffffffffffffffffffff167fddf252ad1be2c89b69c2b068fc378daa952ba7f163c4a11628f55a4df523b3ef60405160405180910390a4611307838383611598565b505050565b8173ffffffffffffffffffffffffffffffffffffffff168373ffffffffffffffffffffffffffffffffffffffff16141561137b576040517f08c379a000000000000000000000000000000000000000000000000000000000815260040161137290612125565b60405180910390fd5b80600560008573ffffffffffffffffffffffffffffffffffffffff1673ffffffffffffffffffffffffffffffffffffffff16815260200190815260200160002060008473ffffffffffffffffffffffffffffffffffffffff1673ffffffffffffffffffffffffffffffffffffffff16815260200190815260200160002060006101000a81548160ff0219169083151502179055508173ffffffffffffffffffffffffffffffffffffffff168373ffffffffffffffffffffffffffffffffffffffff167f17307eab39ab6107e8899845ad3d59bd9653f200f220920489ca2b5937696c318360405161146c9190612048565b60405180910390a3505050565b6114848484846110a5565b6114908484848461159d565b6114cf576040517f08c379a00000000000000000000000000000000000000000000000000000000081526004016114c690612085565b60405180910390fd5b50505050565b606060405180602001604052806000815250905090565b60606114f782610c4c565b611536576040517f08c379a000000000000000000000000000000000000000000000000000000000815260040161152d90612245565b60405180910390fd5b60006115406114d5565b90506000815111611560576040518060200160405280600081525061158b565b8061156a84611734565b60405160200161157b929190611fbd565b6040516020818303038152906040525b915050919050565b505050565b505050565b60006115be8473ffffffffffffffffffffffffffffffffffffffff166118e1565b15611727578373ffffffffffffffffffffffffffffffffffffffff1663150b7a026115e7610cb8565b8786866040518563ffffffff1660e01b81526004016116099493929190611ffc565b602060405180830381600087803b15801561162357600080fd5b505af192505050801561165457506040513d601f19601f820116820180604052508101906116519190611c48565b60015b6116d7573d8060008114611684576040519150601f19603f3d011682016040523d82523d6000602084013e611689565b606091505b506000815114156116cf576040517f08c379a00000000000000000000000000000000000000000000000000000000081526004016116c690612085565b60405180910390fd5b805181602001fd5b63150b7a0260e01b7bffffffffffffffffffffffffffffffffffffffffffffffffffffffff1916817bffffffffffffffffffffffffffffffffffffffffffffffffffffffff19161491505061172c565b600190505b949350505050565b6060600082141561177c576040518060400160405280600181526020017f300000000000000000000000000000000000000000000000000000000000000081525090506118dc565b600082905060005b600082146117ae5780806117979061252d565b915050600a826117a791906123af565b9150611784565b60008167ffffffffffffffff8111156117f0577f4e487b7100000000000000000000000000000000000000000000000000000000600052604160045260246000fd5b6040519080825280601f01601f1916602001820160405280156118225781602001600182028036833780820191505090505b5090505b600085146118d55760018261183b91906123e0565b9150600a8561184a9190612576565b60306118569190612359565b60f81b818381518110611892577f4e487b7100000000000000000000000000000000000000000000000000000000600052603260045260246000fd5b60200101907effffffffffffffffffffffffffffffffffffffffffffffffffffffffffffff1916908160001a905350600a856118ce91906123af565b9450611826565b8093505050505b919050565b6000808273ffffffffffffffffffffffffffffffffffffffff163b119050919050565b828054611910906124ca565b90600052602060002090601f0160209004810192826119325760008555611979565b82601f1061194b57805160ff1916838001178555611979565b82800160010185558215611979579182015b8281111561197857825182559160200191906001019061195d565b5b509050611986919061198a565b5090565b5b808211156119a357600081600090555060010161198b565b5090565b60006119ba6119b5846122e5565b6122c0565b9050828152602081018484840111156119d257600080fd5b6119dd848285612488565b509392505050565b6000813590506119f481612b1b565b92915050565b600081359050611a0981612b32565b92915050565b600081359050611a1e81612b49565b92915050565b600081519050611a3381612b49565b92915050565b600082601f830112611a4a57600080fd5b8135611a5a8482602086016119a7565b91505092915050565b600081359050611a7281612b60565b92915050565b600060208284031215611a8a57600080fd5b6000611a98848285016119e5565b91505092915050565b60008060408385031215611ab457600080fd5b6000611ac2858286016119e5565b9250506020611ad3858286016119e5565b9150509250929050565b600080600060608486031215611af257600080fd5b6000611b00868287016119e5565b9350506020611b11868287016119e5565b9250506040611b2286828701611a63565b9150509250925092565b60008060008060808587031215611b4257600080fd5b6000611b50878288016119e5565b9450506020611b61878288016119e5565b9350506040611b7287828801611a63565b925050606085013567ffffffffffffffff811115611b8f57600080fd5b611b9b87828801611a39565b91505092959194509250565b60008060408385031215611bba57600080fd5b6000611bc8858286016119e5565b9250506020611bd9858286016119fa565b9150509250929050565b60008060408385031215611bf657600080fd5b6000611c04858286016119e5565b9250506020611c1585828601611a63565b9150509250929050565b600060208284031215611c3157600080fd5b6000611c3f84828501611a0f565b91505092915050565b600060208284031215611c5a57600080fd5b6000611c6884828501611a24565b91505092915050565b600060208284031215611c8357600080fd5b6000611c9184828501611a63565b91505092915050565b611ca381612414565b82525050565b611cb281612426565b82525050565b6000611cc382612316565b611ccd818561232c565b9350611cdd818560208601612497565b611ce681612663565b840191505092915050565b6000611cfc82612321565b611d06818561233d565b9350611d16818560208601612497565b611d1f81612663565b840191505092915050565b6000611d3582612321565b611d3f818561234e565b9350611d4f818560208601612497565b80840191505092915050565b6000611d6860328361233d565b9150611d7382612674565b604082019050919050565b6000611d8b60258361233d565b9150611d96826126c3565b604082019050919050565b6000611dae601c8361233d565b9150611db982612712565b602082019050919050565b6000611dd1601c8361233d565b9150611ddc8261273b565b602082019050919050565b6000611df460248361233d565b9150611dff82612764565b604082019050919050565b6000611e1760198361233d565b9150611e22826127b3565b602082019050919050565b6000611e3a602c8361233d565b9150611e45826127dc565b604082019050919050565b6000611e5d60388361233d565b9150611e688261282b565b604082019050919050565b6000611e80602a8361233d565b9150611e8b8261287a565b604082019050919050565b6000611ea360298361233d565b9150611eae826128c9565b604082019050919050565b6000611ec6602e8361233d565b9150611ed182612918565b604082019050919050565b6000611ee960208361233d565b9150611ef482612967565b602082019050919050565b6000611f0c60318361233d565b9150611f1782612990565b604082019050919050565b6000611f2f602c8361233d565b9150611f3a826129df565b604082019050919050565b6000611f52602f8361233d565b9150611f5d82612a2e565b604082019050919050565b6000611f7560218361233d565b9150611f8082612a7d565b604082019050919050565b6000611f9860318361233d565b9150611fa382612acc565b604082019050919050565b611fb78161247e565b82525050565b6000611fc98285611d2a565b9150611fd58284611d2a565b91508190509392505050565b6000602082019050611ff66000830184611c9a565b92915050565b60006080820190506120116000830187611c9a565b61201e6020830186611c9a565b61202b6040830185611fae565b818103606083015261203d8184611cb8565b905095945050505050565b600060208201905061205d6000830184611ca9565b92915050565b6000602082019050818103600083015261207d8184611cf1565b905092915050565b6000602082019050818103600083015261209e81611d5b565b9050919050565b600060208201905081810360008301526120be81611d7e565b9050919050565b600060208201905081810360008301526120de81611da1565b9050919050565b600060208201905081810360008301526120fe81611dc4565b9050919050565b6000602082019050818103600083015261211e81611de7565b9050919050565b6000602082019050818103600083015261213e81611e0a565b9050919050565b6000602082019050818103600083015261215e81611e2d565b9050919050565b6000602082019050818103600083015261217e81611e50565b9050919050565b6000602082019050818103600083015261219e81611e73565b9050919050565b600060208201905081810360008301526121be81611e96565b9050919050565b600060208201905081810360008301526121de81611eb9565b9050919050565b600060208201905081810360008301526121fe81611edc565b9050919050565b6000602082019050818103600083015261221e81611eff565b9050919050565b6000602082019050818103600083015261223e81611f22565b9050919050565b6000602082019050818103600083015261225e81611f45565b9050919050565b6000602082019050818103600083015261227e81611f68565b9050919050565b6000602082019050818103600083015261229e81611f8b565b9050919050565b60006020820190506122ba6000830184611fae565b92915050565b60006122ca6122db565b90506122d682826124fc565b919050565b6000604051905090565b600067ffffffffffffffff821115612300576122ff612634565b5b61230982612663565b9050602081019050919050565b600081519050919050565b600081519050919050565b600082825260208201905092915050565b600082825260208201905092915050565b600081905092915050565b60006123648261247e565b915061236f8361247e565b9250827fffffffffffffffffffffffffffffffffffffffffffffffffffffffffffffffff038211156123a4576123a36125a7565b5b828201905092915050565b60006123ba8261247e565b91506123c58361247e565b9250826123d5576123d46125d6565b5b828204905092915050565b60006123eb8261247e565b91506123f68361247e565b925082821015612409576124086125a7565b5b828203905092915050565b600061241f8261245e565b9050919050565b60008115159050919050565b60007fffffffff0000000000000000000000000000000000000000000000000000000082169050919050565b600073ffffffffffffffffffffffffffffffffffffffff82169050919050565b6000819050919050565b82818337600083830152505050565b60005b838110156124b557808201518184015260208101905061249a565b838111156124c4576000848401525b50505050565b600060028204905060018216806124e257607f821691505b602082108114156124f6576124f5612605565b5b50919050565b61250582612663565b810181811067ffffffffffffffff8211171561252457612523612634565b5b80604052505050565b60006125388261247e565b91507fffffffffffffffffffffffffffffffffffffffffffffffffffffffffffffffff82141561256b5761256a6125a7565b5b600182019050919050565b60006125818261247e565b915061258c8361247e565b92508261259c5761259b6125d6565b5b828206905092915050565b7f4e487b7100000000000000000000000000000000000000000000000000000000600052601160045260246000fd5b7f4e487b7100000000000000000000000000000000000000000000000000000000600052601260045260246000fd5b7f4e487b7100000000000000000000000000000000000000000000000000000000600052602260045260246000fd5b7f4e487b7100000000000000000000000000000000000000000000000000000000600052604160045260246000fd5b6000601f19601f8301169050919050565b7f4552433732313a207472616e7366657220746f206e6f6e20455243373231526560008201527f63656976657220696d706c656d656e7465720000000000000000000000000000602082015250565b7f4552433732313a207472616e736665722066726f6d20696e636f72726563742060008201527f6f776e6572000000000000000000000000000000000000000000000000000000602082015250565b7f4552433732313a20746f6b656e20616c7265616479206d696e74656400000000600082015250565b7f4e6f76656d6265723a20696e73756666696369656e742066756e647300000000600082015250565b7f4552433732313a207472616e7366657220746f20746865207a65726f2061646460008201527f7265737300000000000000000000000000000000000000000000000000000000602082015250565b7f4552433732313a20617070726f766520746f2063616c6c657200000000000000600082015250565b7f4552433732313a206f70657261746f7220717565727920666f72206e6f6e657860008201527f697374656e7420746f6b656e0000000000000000000000000000000000000000602082015250565b7f4552433732313a20617070726f76652063616c6c6572206973206e6f74206f7760008201527f6e6572206e6f7220617070726f76656420666f7220616c6c0000000000000000602082015250565b7f4552433732313a2062616c616e636520717565727920666f7220746865207a6560008201527f726f206164647265737300000000000000000000000000000000000000000000602082015250565b7f4552433732313a206f776e657220717565727920666f72206e6f6e657869737460008201527f656e7420746f6b656e0000000000000000000000000000000000000000000000602082015250565b7f45524337323155524953746f726167653a2055524920736574206f66206e6f6e60008201527f6578697374656e7420746f6b656e000000000000000000000000000000000000602082015250565b7f4552433732313a206d696e7420746f20746865207a65726f2061646472657373600082015250565b7f45524337323155524953746f726167653a2055524920717565727920666f722060008201527f6e6f6e6578697374656e7420746f6b656e000000000000000000000000000000602082015250565b7f4552433732313a20617070726f76656420717565727920666f72206e6f6e657860008201527f697374656e7420746f6b656e0000000000000000000000000000000000000000602082015250565b7f4552433732314d657461646174613a2055524920717565727920666f72206e6f60008201527f6e6578697374656e7420746f6b656e0000000000000000000000000000000000602082015250565b7f4552433732313a20617070726f76616c20746f2063757272656e74206f776e6560008201527f7200000000000000000000000000000000000000000000000000000000000000602082015250565b7f4552433732313a207472616e736665722063616c6c6572206973206e6f74206f60008201527f776e6572206e6f7220617070726f766564000000000000000000000000000000602082015250565b612b2481612414565b8114612b2f57600080fd5b50565b612b3b81612426565b8114612b4657600080fd5b50565b612b5281612432565b8114612b5d57600080fd5b50565b612b698161247e565b8114612b7457600080fd5b5056fe697066733a2f2f6261666b72656961727467716e776373757978666673766578686a33797334687469657774357367716a66736932356c73767279727a6d74783565a2646970667358221220b95cb2da544a7f036676a074113d7aecb95177595bba895daeff9a3d63440d6164736f6c63430008040033",
  "linkReferences": {},
  "deployedLinkReferences": {}
}