{
  "_format": "hh-sol-artifact-1",
  "contractName": "JintaoNFT_old",
  "sourceName": "contracts/JintaoNFT_old.sol",
  "abi": [
    {
      "inputs": [],
      "stateMutability": "nonpayable",
      "type": "constructor"
    },
    {
      "anonymous": false,
      "inputs": [
        {
          "indexed": true,
          "internalType": "address",
          "name": "owner",
          "type": "address"
        },
        {
          "indexed": true,
          "internalType": "address",
          "name": "approved",
          "type": "address"
        },
        {
          "indexed": true,
          "internalType": "uint256",
          "name": "tokenId",
          "type": "uint256"
        }
      ],
      "name": "Approval",
      "type": "event"
    },
    {
      "anonymous": false,
      "inputs": [
        {
          "indexed": true,
          "internalType": "address",
          "name": "owner",
          "type": "address"
        },
        {
          "indexed": true,
          "internalType": "address",
          "name": "operator",
          "type": "address"
        },
        {
          "indexed": false,
          "internalType": "bool",
          "name": "approved",
          "type": "bool"
        }
      ],
      "name": "ApprovalForAll",
      "type": "event"
    },
    {
      "anonymous": false,
      "inputs": [
        {
          "indexed": true,
          "internalType": "address",
          "name": "from",
          "type": "address"
        },
        {
          "indexed": true,
          "internalType": "address",
          "name": "to",
          "type": "address"
        },
        {
          "indexed": true,
          "internalType": "uint256",
          "name": "tokenId",
          "type": "uint256"
        }
      ],
      "name": "Transfer",
      "type": "event"
    },
    {
      "inputs": [
        {
          "internalType": "address",
          "name": "to",
          "type": "address"
        },
        {
          "internalType": "uint256",
          "name": "tokenId",
          "type": "uint256"
        }
      ],
      "name": "approve",
      "outputs": [],
      "stateMutability": "nonpayable",
      "type": "function"
    },
    {
      "inputs": [
        {
          "internalType": "address",
          "name": "owner",
          "type": "address"
        }
      ],
      "name": "balanceOf",
      "outputs": [
        {
          "internalType": "uint256",
          "name": "",
          "type": "uint256"
        }
      ],
      "stateMutability": "view",
      "type": "function"
    },
    {
      "inputs": [
        {
          "internalType": "uint256",
          "name": "tokenId",
          "type": "uint256"
        }
      ],
      "name": "getApproved",
      "outputs": [
        {
          "internalType": "address",
          "name": "",
          "type": "address"
        }
      ],
      "stateMutability": "view",
      "type": "function"
    },
    {
      "inputs": [
        {
          "internalType": "address",
          "name": "owner",
          "type": "address"
        },
        {
          "internalType": "address",
          "name": "operator",
          "type": "address"
        }
      ],
      "name": "isApprovedForAll",
      "outputs": [
        {
          "internalType": "bool",
          "name": "",
          "type": "bool"
        }
      ],
      "stateMutability": "view",
      "type": "function"
    },
    {
      "inputs": [],
      "name": "mint",
      "outputs": [],
      "stateMutability": "payable",
      "type": "function"
    },
    {
      "inputs": [],
      "name": "name",
      "outputs": [
        {
          "internalType": "string",
          "name": "",
          "type": "string"
        }
      ],
      "stateMutability": "view",
      "type": "function"
    },
    {
      "inputs": [
        {
          "internalType": "uint256",
          "name": "tokenId",
          "type": "uint256"
        }
      ],
      "name": "ownerOf",
      "outputs": [
        {
          "internalType": "address",
          "name": "",
          "type": "address"
        }
      ],
      "stateMutability": "view",
      "type": "function"
    },
    {
      "inputs": [
        {
          "internalType": "address",
          "name": "from",
          "type": "address"
        },
        {
          "internalType": "address",
          "name": "to",
          "type": "address"
        },
        {
          "internalType": "uint256",
          "name": "tokenId",
          "type": "uint256"
        }
      ],
      "name": "safeTransferFrom",
      "outputs": [],
      "stateMutability": "nonpayable",
      "type": "function"
    },
    {
      "inputs": [
        {
          "internalType": "address",
          "name": "from",
          "type": "address"
        },
        {
          "internalType": "address",
          "name": "to",
          "type": "address"
        },
        {
          "internalType": "uint256",
          "name": "tokenId",
          "type": "uint256"
        },
        {
          "internalType": "bytes",
          "name": "_data",
          "type": "bytes"
        }
      ],
      "name": "safeTransferFrom",
      "outputs": [],
      "stateMutability": "nonpayable",
      "type": "function"
    },
    {
      "inputs": [
        {
          "internalType": "address",
          "name": "operator",
          "type": "address"
        },
        {
          "internalType": "bool",
          "name": "approved",
          "type": "bool"
        }
      ],
      "name": "setApprovalForAll",
      "outputs": [],
      "stateMutability": "nonpayable",
      "type": "function"
    },
    {
      "inputs": [
        {
          "internalType": "bytes4",
          "name": "interfaceId",
          "type": "bytes4"
        }
      ],
      "name": "supportsInterface",
      "outputs": [
        {
          "internalType": "bool",
          "name": "",
          "type": "bool"
        }
      ],
      "stateMutability": "view",
      "type": "function"
    },
    {
      "inputs": [],
      "name": "symbol",
      "outputs": [
        {
          "internalType": "string",
          "name": "",
          "type": "string"
        }
      ],
      "stateMutability": "view",
      "type": "function"
    },
    {
      "inputs": [
        {
          "internalType": "uint256",
          "name": "tokenId",
          "type": "uint256"
        }
      ],
      "name": "tokenURI",
      "outputs": [
        {
          "internalType": "string",
          "name": "",
          "type": "string"
        }
      ],
      "stateMutability": "view",
      "type": "function"
    },
    {
      "inputs": [
        {
          "internalType": "address",
          "name": "from",
          "type": "address"
        },
        {
          "internalType": "address",
          "name": "to",
          "type": "address"
        },
        {
          "internalType": "uint256",
          "name": "tokenId",
          "type": "uint256"
        }
      ],
      "name": "transferFrom",
      "outputs": [],
      "stateMutability": "nonpayable",
      "type": "function"
    }
  ],
  "bytecode": "0x60806040523480156200001157600080fd5b506040518060400160405280600a81526020017f4a696e74616f44656d6f000000000000000000000000000000000000000000008152506040518060400160405280600481526020017f44454d4f00000000000000000000000000000000000000000000000000000000815250816000908051906020019062000096929190620000f9565b508060019080519060200190620000af929190620000f9565b50505033600760006101000a81548173ffffffffffffffffffffffffffffffffffffffff021916908373ffffffffffffffffffffffffffffffffffffffff1602179055506200020e565b8280546200010790620001a9565b90600052602060002090601f0160209004810192826200012b576000855562000177565b82601f106200014657805160ff191683800117855562000177565b8280016001018555821562000177579182015b828111156200017657825182559160200191906001019062000159565b5b5090506200018691906200018a565b5090565b5b80821115620001a55760008160009055506001016200018b565b5090565b60006002820490506001821680620001c257607f821691505b60208210811415620001d957620001d8620001df565b5b50919050565b7f4e487b7100000000000000000000000000000000000000000000000000000000600052602260045260246000fd5b612cc9806200021e6000396000f3fe6080604052600436106100dd5760003560e01c80636352211e1161007f578063a22cb46511610059578063a22cb465146102b1578063b88d4fde146102da578063c87b56dd14610303578063e985e9c514610340576100dd565b80636352211e1461020c57806370a082311461024957806395d89b4114610286576100dd565b8063095ea7b3116100bb578063095ea7b3146101875780631249c58b146101b057806323b872dd146101ba57806342842e0e146101e3576100dd565b806301ffc9a7146100e257806306fdde031461011f578063081812fc1461014a575b600080fd5b3480156100ee57600080fd5b5061010960048036038101906101049190611c67565b61037d565b60405161011691906120b3565b60405180910390f35b34801561012b57600080fd5b5061013461045f565b60405161014191906120ce565b60405180910390f35b34801561015657600080fd5b50610171600480360381019061016c9190611cb9565b6104f1565b60405161017e919061204c565b60405180910390f35b34801561019357600080fd5b506101ae60048036038101906101a99190611c2b565b610576565b005b6101b861068e565b005b3480156101c657600080fd5b506101e160048036038101906101dc9190611b25565b610750565b005b3480156101ef57600080fd5b5061020a60048036038101906102059190611b25565b6107b0565b005b34801561021857600080fd5b50610233600480360381019061022e9190611cb9565b6107d0565b604051610240919061204c565b60405180910390f35b34801561025557600080fd5b50610270600480360381019061026b9190611ac0565b610882565b60405161027d9190612330565b60405180910390f35b34801561029257600080fd5b5061029b61093a565b6040516102a891906120ce565b60405180910390f35b3480156102bd57600080fd5b506102d860048036038101906102d39190611bef565b6109cc565b005b3480156102e657600080fd5b5061030160048036038101906102fc9190611b74565b6109e2565b005b34801561030f57600080fd5b5061032a60048036038101906103259190611cb9565b610a44565b60405161033791906120ce565b60405180910390f35b34801561034c57600080fd5b5061036760048036038101906103629190611ae9565b610b96565b60405161037491906120b3565b60405180910390f35b60007f80ac58cd000000000000000000000000000000000000000000000000000000007bffffffffffffffffffffffffffffffffffffffffffffffffffffffff1916827bffffffffffffffffffffffffffffffffffffffffffffffffffffffff1916148061044857507f5b5e139f000000000000000000000000000000000000000000000000000000007bffffffffffffffffffffffffffffffffffffffffffffffffffffffff1916827bffffffffffffffffffffffffffffffffffffffffffffffffffffffff1916145b80610458575061045782610c2a565b5b9050919050565b60606000805461046e90612555565b80601f016020809104026020016040519081016040528092919081815260200182805461049a90612555565b80156104e75780601f106104bc576101008083540402835291602001916104e7565b820191906000526020600020905b8154815290600101906020018083116104ca57829003601f168201915b5050505050905090565b60006104fc82610c94565b61053b576040517f08c379a000000000000000000000000000000000000000000000000000000000815260040161053290612290565b60405180910390fd5b6004600083815260200190815260200160002060009054906101000a900473ffffffffffffffffffffffffffffffffffffffff169050919050565b6000610581826107d0565b90508073ffffffffffffffffffffffffffffffffffffffff168373ffffffffffffffffffffffffffffffffffffffff1614156105f2576040517f08c379a00000000000000000000000000000000000000000000000000000000081526004016105e9906122d0565b60405180910390fd5b8073ffffffffffffffffffffffffffffffffffffffff16610611610d00565b73ffffffffffffffffffffffffffffffffffffffff161480610640575061063f8161063a610d00565b610b96565b5b61067f576040517f08c379a0000000000000000000000000000000000000000000000000000000008152600401610676906121d0565b60405180910390fd5b6106898383610d08565b505050565b61069734610c94565b6106d6576040517f08c379a00000000000000000000000000000000000000000000000000000000081526004016106cd90612130565b60405180910390fd5b66038d7ea4c68000341015610720576040517f08c379a000000000000000000000000000000000000000000000000000000000815260040161071790612310565b60405180910390fd5b61072b336000610dc1565b61074e6000604051806080016040528060428152602001612c5260429139610f9b565b565b61076161075b610d00565b8261100f565b6107a0576040517f08c379a0000000000000000000000000000000000000000000000000000000008152600401610797906122f0565b60405180910390fd5b6107ab8383836110ed565b505050565b6107cb838383604051806020016040528060008152506109e2565b505050565b6000806002600084815260200190815260200160002060009054906101000a900473ffffffffffffffffffffffffffffffffffffffff169050600073ffffffffffffffffffffffffffffffffffffffff168173ffffffffffffffffffffffffffffffffffffffff161415610879576040517f08c379a000000000000000000000000000000000000000000000000000000000815260040161087090612210565b60405180910390fd5b80915050919050565b60008073ffffffffffffffffffffffffffffffffffffffff168273ffffffffffffffffffffffffffffffffffffffff1614156108f3576040517f08c379a00000000000000000000000000000000000000000000000000000000081526004016108ea906121f0565b60405180910390fd5b600360008373ffffffffffffffffffffffffffffffffffffffff1673ffffffffffffffffffffffffffffffffffffffff168152602001908152602001600020549050919050565b60606001805461094990612555565b80601f016020809104026020016040519081016040528092919081815260200182805461097590612555565b80156109c25780601f10610997576101008083540402835291602001916109c2565b820191906000526020600020905b8154815290600101906020018083116109a557829003601f168201915b5050505050905090565b6109de6109d7610d00565b8383611354565b5050565b6109f36109ed610d00565b8361100f565b610a32576040517f08c379a0000000000000000000000000000000000000000000000000000000008152600401610a29906122f0565b60405180910390fd5b610a3e848484846114c1565b50505050565b6060610a4f82610c94565b610a8e576040517f08c379a0000000000000000000000000000000000000000000000000000000008152600401610a8590612270565b60405180910390fd5b6000600660008481526020019081526020016000208054610aae90612555565b80601f0160208091040260200160405190810160405280929190818152602001828054610ada90612555565b8015610b275780601f10610afc57610100808354040283529160200191610b27565b820191906000526020600020905b815481529060010190602001808311610b0a57829003601f168201915b505050505090506000610b3861151d565b9050600081511415610b4e578192505050610b91565b600082511115610b83578082604051602001610b6b929190612028565b60405160208183030381529060405292505050610b91565b610b8c84611534565b925050505b919050565b6000600560008473ffffffffffffffffffffffffffffffffffffffff1673ffffffffffffffffffffffffffffffffffffffff16815260200190815260200160002060008373ffffffffffffffffffffffffffffffffffffffff1673ffffffffffffffffffffffffffffffffffffffff16815260200190815260200160002060009054906101000a900460ff16905092915050565b60007f01ffc9a7000000000000000000000000000000000000000000000000000000007bffffffffffffffffffffffffffffffffffffffffffffffffffffffff1916827bffffffffffffffffffffffffffffffffffffffffffffffffffffffff1916149050919050565b60008073ffffffffffffffffffffffffffffffffffffffff166002600084815260200190815260200160002060009054906101000a900473ffffffffffffffffffffffffffffffffffffffff1673ffffffffffffffffffffffffffffffffffffffff1614159050919050565b600033905090565b816004600083815260200190815260200160002060006101000a81548173ffffffffffffffffffffffffffffffffffffffff021916908373ffffffffffffffffffffffffffffffffffffffff160217905550808273ffffffffffffffffffffffffffffffffffffffff16610d7b836107d0565b73ffffffffffffffffffffffffffffffffffffffff167f8c5be1e5ebec7d5bd14f71427d1e84f3dd0314c0f7b2291e5b200ac8c7c3b92560405160405180910390a45050565b600073ffffffffffffffffffffffffffffffffffffffff168273ffffffffffffffffffffffffffffffffffffffff161415610e31576040517f08c379a0000000000000000000000000000000000000000000000000000000008152600401610e2890612250565b60405180910390fd5b610e3a81610c94565b15610e7a576040517f08c379a0000000000000000000000000000000000000000000000000000000008152600401610e7190612150565b60405180910390fd5b610e86600083836115db565b6001600360008473ffffffffffffffffffffffffffffffffffffffff1673ffffffffffffffffffffffffffffffffffffffff1681526020019081526020016000206000828254610ed691906123e4565b92505081905550816002600083815260200190815260200160002060006101000a81548173ffffffffffffffffffffffffffffffffffffffff021916908373ffffffffffffffffffffffffffffffffffffffff160217905550808273ffffffffffffffffffffffffffffffffffffffff16600073ffffffffffffffffffffffffffffffffffffffff167fddf252ad1be2c89b69c2b068fc378daa952ba7f163c4a11628f55a4df523b3ef60405160405180910390a4610f97600083836115e0565b5050565b610fa482610c94565b610fe3576040517f08c379a0000000000000000000000000000000000000000000000000000000008152600401610fda90612230565b60405180910390fd5b8060066000848152602001908152602001600020908051906020019061100a92919061194c565b505050565b600061101a82610c94565b611059576040517f08c379a0000000000000000000000000000000000000000000000000000000008152600401611050906121b0565b60405180910390fd5b6000611064836107d0565b90508073ffffffffffffffffffffffffffffffffffffffff168473ffffffffffffffffffffffffffffffffffffffff1614806110a657506110a58185610b96565b5b806110e457508373ffffffffffffffffffffffffffffffffffffffff166110cc846104f1565b73ffffffffffffffffffffffffffffffffffffffff16145b91505092915050565b8273ffffffffffffffffffffffffffffffffffffffff1661110d826107d0565b73ffffffffffffffffffffffffffffffffffffffff1614611163576040517f08c379a000000000000000000000000000000000000000000000000000000000815260040161115a90612110565b60405180910390fd5b600073ffffffffffffffffffffffffffffffffffffffff168273ffffffffffffffffffffffffffffffffffffffff1614156111d3576040517f08c379a00000000000000000000000000000000000000000000000000000000081526004016111ca90612170565b60405180910390fd5b6111de8383836115db565b6111e9600082610d08565b6001600360008573ffffffffffffffffffffffffffffffffffffffff1673ffffffffffffffffffffffffffffffffffffffff1681526020019081526020016000206000828254611239919061246b565b925050819055506001600360008473ffffffffffffffffffffffffffffffffffffffff1673ffffffffffffffffffffffffffffffffffffffff168152602001908152602001600020600082825461129091906123e4565b92505081905550816002600083815260200190815260200160002060006101000a81548173ffffffffffffffffffffffffffffffffffffffff021916908373ffffffffffffffffffffffffffffffffffffffff160217905550808273ffffffffffffffffffffffffffffffffffffffff168473ffffffffffffffffffffffffffffffffffffffff167fddf252ad1be2c89b69c2b068fc378daa952ba7f163c4a11628f55a4df523b3ef60405160405180910390a461134f8383836115e0565b505050565b8173ffffffffffffffffffffffffffffffffffffffff168373ffffffffffffffffffffffffffffffffffffffff1614156113c3576040517f08c379a00000000000000000000000000000000000000000000000000000000081526004016113ba90612190565b60405180910390fd5b80600560008573ffffffffffffffffffffffffffffffffffffffff1673ffffffffffffffffffffffffffffffffffffffff16815260200190815260200160002060008473ffffffffffffffffffffffffffffffffffffffff1673ffffffffffffffffffffffffffffffffffffffff16815260200190815260200160002060006101000a81548160ff0219169083151502179055508173ffffffffffffffffffffffffffffffffffffffff168373ffffffffffffffffffffffffffffffffffffffff167f17307eab39ab6107e8899845ad3d59bd9653f200f220920489ca2b5937696c31836040516114b491906120b3565b60405180910390a3505050565b6114cc8484846110ed565b6114d8848484846115e5565b611517576040517f08c379a000000000000000000000000000000000000000000000000000000000815260040161150e906120f0565b60405180910390fd5b50505050565b606060405180602001604052806000815250905090565b606061153f82610c94565b61157e576040517f08c379a0000000000000000000000000000000000000000000000000000000008152600401611575906122b0565b60405180910390fd5b600061158861151d565b905060008151116115a857604051806020016040528060008152506115d3565b806115b28461177c565b6040516020016115c3929190612028565b6040516020818303038152906040525b915050919050565b505050565b505050565b60006116068473ffffffffffffffffffffffffffffffffffffffff16611929565b1561176f578373ffffffffffffffffffffffffffffffffffffffff1663150b7a0261162f610d00565b8786866040518563ffffffff1660e01b81526004016116519493929190612067565b602060405180830381600087803b15801561166b57600080fd5b505af192505050801561169c57506040513d601f19601f820116820180604052508101906116999190611c90565b60015b61171f573d80600081146116cc576040519150601f19603f3d011682016040523d82523d6000602084013e6116d1565b606091505b50600081511415611717576040517f08c379a000000000000000000000000000000000000000000000000000000000815260040161170e906120f0565b60405180910390fd5b805181602001fd5b63150b7a0260e01b7bffffffffffffffffffffffffffffffffffffffffffffffffffffffff1916817bffffffffffffffffffffffffffffffffffffffffffffffffffffffff191614915050611774565b600190505b949350505050565b606060008214156117c4576040518060400160405280600181526020017f30000000000000000000000000000000000000000000000000000000000000008152509050611924565b600082905060005b600082146117f65780806117df906125b8565b915050600a826117ef919061243a565b91506117cc565b60008167ffffffffffffffff811115611838577f4e487b7100000000000000000000000000000000000000000000000000000000600052604160045260246000fd5b6040519080825280601f01601f19166020018201604052801561186a5781602001600182028036833780820191505090505b5090505b6000851461191d57600182611883919061246b565b9150600a856118929190612601565b603061189e91906123e4565b60f81b8183815181106118da577f4e487b7100000000000000000000000000000000000000000000000000000000600052603260045260246000fd5b60200101907effffffffffffffffffffffffffffffffffffffffffffffffffffffffffffff1916908160001a905350600a85611916919061243a565b945061186e565b8093505050505b919050565b6000808273ffffffffffffffffffffffffffffffffffffffff163b119050919050565b82805461195890612555565b90600052602060002090601f01602090048101928261197a57600085556119c1565b82601f1061199357805160ff19168380011785556119c1565b828001600101855582156119c1579182015b828111156119c05782518255916020019190600101906119a5565b5b5090506119ce91906119d2565b5090565b5b808211156119eb5760008160009055506001016119d3565b5090565b6000611a026119fd84612370565b61234b565b905082815260208101848484011115611a1a57600080fd5b611a25848285612513565b509392505050565b600081359050611a3c81612bf5565b92915050565b600081359050611a5181612c0c565b92915050565b600081359050611a6681612c23565b92915050565b600081519050611a7b81612c23565b92915050565b600082601f830112611a9257600080fd5b8135611aa28482602086016119ef565b91505092915050565b600081359050611aba81612c3a565b92915050565b600060208284031215611ad257600080fd5b6000611ae084828501611a2d565b91505092915050565b60008060408385031215611afc57600080fd5b6000611b0a85828601611a2d565b9250506020611b1b85828601611a2d565b9150509250929050565b600080600060608486031215611b3a57600080fd5b6000611b4886828701611a2d565b9350506020611b5986828701611a2d565b9250506040611b6a86828701611aab565b9150509250925092565b60008060008060808587031215611b8a57600080fd5b6000611b9887828801611a2d565b9450506020611ba987828801611a2d565b9350506040611bba87828801611aab565b925050606085013567ffffffffffffffff811115611bd757600080fd5b611be387828801611a81565b91505092959194509250565b60008060408385031215611c0257600080fd5b6000611c1085828601611a2d565b9250506020611c2185828601611a42565b9150509250929050565b60008060408385031215611c3e57600080fd5b6000611c4c85828601611a2d565b9250506020611c5d85828601611aab565b9150509250929050565b600060208284031215611c7957600080fd5b6000611c8784828501611a57565b91505092915050565b600060208284031215611ca257600080fd5b6000611cb084828501611a6c565b91505092915050565b600060208284031215611ccb57600080fd5b6000611cd984828501611aab565b91505092915050565b611ceb8161249f565b82525050565b611cfa816124b1565b82525050565b6000611d0b826123a1565b611d1581856123b7565b9350611d25818560208601612522565b611d2e816126ee565b840191505092915050565b6000611d44826123ac565b611d4e81856123c8565b9350611d5e818560208601612522565b611d67816126ee565b840191505092915050565b6000611d7d826123ac565b611d8781856123d9565b9350611d97818560208601612522565b80840191505092915050565b6000611db06032836123c8565b9150611dbb826126ff565b604082019050919050565b6000611dd36025836123c8565b9150611dde8261274e565b604082019050919050565b6000611df66026836123c8565b9150611e018261279d565b604082019050919050565b6000611e19601c836123c8565b9150611e24826127ec565b602082019050919050565b6000611e3c6024836123c8565b9150611e4782612815565b604082019050919050565b6000611e5f6019836123c8565b9150611e6a82612864565b602082019050919050565b6000611e82602c836123c8565b9150611e8d8261288d565b604082019050919050565b6000611ea56038836123c8565b9150611eb0826128dc565b604082019050919050565b6000611ec8602a836123c8565b9150611ed38261292b565b604082019050919050565b6000611eeb6029836123c8565b9150611ef68261297a565b604082019050919050565b6000611f0e602e836123c8565b9150611f19826129c9565b604082019050919050565b6000611f316020836123c8565b9150611f3c82612a18565b602082019050919050565b6000611f546031836123c8565b9150611f5f82612a41565b604082019050919050565b6000611f77602c836123c8565b9150611f8282612a90565b604082019050919050565b6000611f9a602f836123c8565b9150611fa582612adf565b604082019050919050565b6000611fbd6021836123c8565b9150611fc882612b2e565b604082019050919050565b6000611fe06031836123c8565b9150611feb82612b7d565b604082019050919050565b6000612003601d836123c8565b915061200e82612bcc565b602082019050919050565b61202281612509565b82525050565b60006120348285611d72565b91506120408284611d72565b91508190509392505050565b60006020820190506120616000830184611ce2565b92915050565b600060808201905061207c6000830187611ce2565b6120896020830186611ce2565b6120966040830185612019565b81810360608301526120a88184611d00565b905095945050505050565b60006020820190506120c86000830184611cf1565b92915050565b600060208201905081810360008301526120e88184611d39565b905092915050565b6000602082019050818103600083015261210981611da3565b9050919050565b6000602082019050818103600083015261212981611dc6565b9050919050565b6000602082019050818103600083015261214981611de9565b9050919050565b6000602082019050818103600083015261216981611e0c565b9050919050565b6000602082019050818103600083015261218981611e2f565b9050919050565b600060208201905081810360008301526121a981611e52565b9050919050565b600060208201905081810360008301526121c981611e75565b9050919050565b600060208201905081810360008301526121e981611e98565b9050919050565b6000602082019050818103600083015261220981611ebb565b9050919050565b6000602082019050818103600083015261222981611ede565b9050919050565b6000602082019050818103600083015261224981611f01565b9050919050565b6000602082019050818103600083015261226981611f24565b9050919050565b6000602082019050818103600083015261228981611f47565b9050919050565b600060208201905081810360008301526122a981611f6a565b9050919050565b600060208201905081810360008301526122c981611f8d565b9050919050565b600060208201905081810360008301526122e981611fb0565b9050919050565b6000602082019050818103600083015261230981611fd3565b9050919050565b6000602082019050818103600083015261232981611ff6565b9050919050565b60006020820190506123456000830184612019565b92915050565b6000612355612366565b90506123618282612587565b919050565b6000604051905090565b600067ffffffffffffffff82111561238b5761238a6126bf565b5b612394826126ee565b9050602081019050919050565b600081519050919050565b600081519050919050565b600082825260208201905092915050565b600082825260208201905092915050565b600081905092915050565b60006123ef82612509565b91506123fa83612509565b9250827fffffffffffffffffffffffffffffffffffffffffffffffffffffffffffffffff0382111561242f5761242e612632565b5b828201905092915050565b600061244582612509565b915061245083612509565b9250826124605761245f612661565b5b828204905092915050565b600061247682612509565b915061248183612509565b92508282101561249457612493612632565b5b828203905092915050565b60006124aa826124e9565b9050919050565b60008115159050919050565b60007fffffffff0000000000000000000000000000000000000000000000000000000082169050919050565b600073ffffffffffffffffffffffffffffffffffffffff82169050919050565b6000819050919050565b82818337600083830152505050565b60005b83811015612540578082015181840152602081019050612525565b8381111561254f576000848401525b50505050565b6000600282049050600182168061256d57607f821691505b6020821081141561258157612580612690565b5b50919050565b612590826126ee565b810181811067ffffffffffffffff821117156125af576125ae6126bf565b5b80604052505050565b60006125c382612509565b91507fffffffffffffffffffffffffffffffffffffffffffffffffffffffffffffffff8214156125f6576125f5612632565b5b600182019050919050565b600061260c82612509565b915061261783612509565b92508261262757612626612661565b5b828206905092915050565b7f4e487b7100000000000000000000000000000000000000000000000000000000600052601160045260246000fd5b7f4e487b7100000000000000000000000000000000000000000000000000000000600052601260045260246000fd5b7f4e487b7100000000000000000000000000000000000000000000000000000000600052602260045260246000fd5b7f4e487b7100000000000000000000000000000000000000000000000000000000600052604160045260246000fd5b6000601f19601f8301169050919050565b7f4552433732313a207472616e7366657220746f206e6f6e20455243373231526560008201527f63656976657220696d706c656d656e7465720000000000000000000000000000602082015250565b7f4552433732313a207472616e736665722066726f6d20696e636f72726563742060008201527f6f776e6572000000000000000000000000000000000000000000000000000000602082015250565b7f4a696e74616f4e46543a20517565727920666f72206e6f6e6578697374656e7460008201527f2076616c75650000000000000000000000000000000000000000000000000000602082015250565b7f4552433732313a20746f6b656e20616c7265616479206d696e74656400000000600082015250565b7f4552433732313a207472616e7366657220746f20746865207a65726f2061646460008201527f7265737300000000000000000000000000000000000000000000000000000000602082015250565b7f4552433732313a20617070726f766520746f2063616c6c657200000000000000600082015250565b7f4552433732313a206f70657261746f7220717565727920666f72206e6f6e657860008201527f697374656e7420746f6b656e0000000000000000000000000000000000000000602082015250565b7f4552433732313a20617070726f76652063616c6c6572206973206e6f74206f7760008201527f6e6572206e6f7220617070726f76656420666f7220616c6c0000000000000000602082015250565b7f4552433732313a2062616c616e636520717565727920666f7220746865207a6560008201527f726f206164647265737300000000000000000000000000000000000000000000602082015250565b7f4552433732313a206f776e657220717565727920666f72206e6f6e657869737460008201527f656e7420746f6b656e0000000000000000000000000000000000000000000000602082015250565b7f45524337323155524953746f726167653a2055524920736574206f66206e6f6e60008201527f6578697374656e7420746f6b656e000000000000000000000000000000000000602082015250565b7f4552433732313a206d696e7420746f20746865207a65726f2061646472657373600082015250565b7f45524337323155524953746f726167653a2055524920717565727920666f722060008201527f6e6f6e6578697374656e7420746f6b656e000000000000000000000000000000602082015250565b7f4552433732313a20617070726f76656420717565727920666f72206e6f6e657860008201527f697374656e7420746f6b656e0000000000000000000000000000000000000000602082015250565b7f4552433732314d657461646174613a2055524920717565727920666f72206e6f60008201527f6e6578697374656e7420746f6b656e0000000000000000000000000000000000602082015250565b7f4552433732313a20617070726f76616c20746f2063757272656e74206f776e6560008201527f7200000000000000000000000000000000000000000000000000000000000000602082015250565b7f4552433732313a207472616e736665722063616c6c6572206973206e6f74206f60008201527f776e6572206e6f7220617070726f766564000000000000000000000000000000602082015250565b7f4a696e74616f4e46543a20696e73756666696369656e742066756e6473000000600082015250565b612bfe8161249f565b8114612c0957600080fd5b50565b612c15816124b1565b8114612c2057600080fd5b50565b612c2c816124bd565b8114612c3757600080fd5b50565b612c4381612509565b8114612c4e57600080fd5b5056fe697066733a2f2f6261666b726569617433786e733665786d67796b3469363561346a656f6e377178686f37333675736a666d7769616b3662616e7a377a6b69746a75a26469706673582212206c0d2c351810dfccf3f629197b6527bcdbfce59a9a72a45ee727430297cc56d664736f6c63430008040033",
  "linkReferences": {},
  "deployedLinkReferences": {}
}